:020000040800F2
:100000002805002045010008FB150008B11500086F
:10001000F91500084D020008D91D00080000000075
:10002000000000000000000000000000131A00089B
:100030004F020008000000001D160008151A0008F5
:100040005F0100085F0100085F0100085F01000810
:100050005F0100085F0100085F0100085F01000800
:100060005F0100085F0100085F0100085F010008F0
:100070005F0100085F0100085F0100085F010008E0
:100080005F0100085F0100085F0100085F010008D0
:100090005F0100085F0100085F0100085F010008C0
:1000A0005F0100085F0100085F0100085F010008B0
:1000B0005F0100085F0100085F0100085F010008A0
:1000C0005F0100085F0100085F0100085F01000890
:1000D0005F010008CD1D00085F0100085F010008F6
:1000E0005F0100085F0100085F0100085F01000870
:1000F0005F0100085F0100085F0100085F01000860
:100100005F0100085F0100085F0100082116000878
:100110005F0100085F0100085F0100085F0100083F
:100120005F0100085F0100085F0100085F0100082F
:10013000DFF80CD000F05AF800480047F52000081E
:10014000280500200648804706480047FEE7FEE7EE
:10015000FEE7FEE7FEE7FEE7FEE7FEE7FEE7FEE777
:10016000891A000831010008202A04DB203A21FA0C
:1001700002F00021704721FA02F3D040C2F12002C0
:1001800091400843194670472DE9F05F054600206D
:1001900092469B4688460646814640241BE02846F8
:1001A000414647462246FFF7DFFF53465A46C01AEC
:1001B000914110D311461846224600F029F82D1A15
:1001C00067EB01084F4622460120002100F020F88D
:1001D00017EB00094E41201EA4F10104DFDC484664
:1001E00031462A464346BDE8F09F0000064C074DC5
:1001F00006E0E06840F0010394E8070098471034F7
:10020000AC42F6D3FFF798FF80230008A023000834
:10021000202A04DB203A00FA02F1002070479140C6
:10022000C2F1200320FA03F319439040704710B540
:1002300007E003780C78A34201D0002010BD401CD9
:10024000491C521E92B2F4D2012010BDFEE7704745
:100250002DE9F05F90F821100024022903D0042139
:100260008163012485E001680A6822F00E020A60B9
:1002700001680A6822F001020A603F4E3E4FB21543
:10028000DFF8F4C0DFF8F090DFF8ECA0DFF8E8B0BA
:10029000DFF8E4E00168783F13011502ACF1640C6B
:1002A000A9F15009AAF13C0AABF1280BAEF1140EEA
:1002B0004FF48018B14227D9B9420ED0614512D00F
:1002C00049451DD0514518D0594518D0714501D127
:1002D000424615E0294EB14201D1012210E0274EDD
:1002E0001436B14201D110220AE0244E2836B14220
:1002F00006D0224A3C32914201D11A4600E02A46F9
:100300001E49091F0A602BE0B94213D0614517D07E
:10031000494522D051451DD059451DD0714501D1C7
:1003200042461AE0B14202D14FF0807215E0134EFE
:10033000B14201D1012210E0104E1436B14201D178
:1003400010220AE00D4E2836B14206D00B4A3C324C
:10035000914201D11A4600E02A46074980394A6095
:10036000012180F82110002180F82010416B01B19B
:1003700088472046BDE8F09F800002400804024004
:1003800070B5044600F008F90546601C02D0044828
:100390000078044400F000F9401BA042FAD370BD7D
:1003A000440000202DE9F84FDFF8B8A100220AF13F
:1003B000040B144601274FF00F090BF1040E00BF88
:1003C0000B6807FA04F52B40AB4274D1DFF898C1F3
:1003D0004E68A6EB0C0866452BD00DDC032E34D0FE
:1003E00005DC36B3012E19D0022E2FD11BE0112EC1
:1003F00016D0122E2AD119E0B8F5881F19D006DCC4
:10040000B8F5803F15D0B8F5801F1FD111E0B8F5C1
:10041000001F0ED0B8F5041F18D10AE0CA6815E015
:10042000CA68121D12E0CA6808320FE0CA680C32AE
:100430000CE08A682AB1012A4FF0080203D0456116
:1004400004E0042202E0056100E00022FF2B01D855
:10045000064601E000F104064FEA840501D9A5F142
:100460002005D6F800C009FA05F82CEA080C02FAB3
:1004700005F54CEA050CC6F800C04D68ED006AD5DC
:100480003A4DAE6946F00106AE61AD6924F003064F
:1004900005F001050095364D06EB050CDCF808501B
:1004A000A6074FEA167809FA08F6B543314EB0426E
:1004B00002D100261AE04EE02F4EB04201D10126B3
:1004C00014E02E4EB04201D102260FE02C4EB04275
:1004D00001D103260AE02B4EB04201D1042605E0EB
:1004E000294EB04201D1052600E0062606FA08F69C
:1004F0002E43CCF808604D68DAF80060ED035546ED
:1005000001D51E4300E09E432E604D68AD0305D526
:10051000DBF800601E43CBF8006004E0DBF800501D
:100520009D43CBF800504D68DEF80060ED02754643
:1005300001D51E4300E09E432E604D68AD0205D5F7
:10054000084D0C352E681E432E6004E0054E0C3617
:1005500035689D433560641C102CFFF431AFBDE855
:10056000F88F00000004014000001110001002404C
:100570000000014000080140000C01400010014053
:100580000014014000180140001C01400AB1016143
:1005900070470904FBE700000148806870470000CD
:1005A000440000200248816802781144816070474D
:1005B00044000020074810B5016841F010010160B7
:1005C000032000F09DF8002000F006F800F024F869
:1005D000002010BD0020024070B50D4D04464FF4C0
:1005E0007A712878B1FBF0F00A490968B1FBF0F0A4
:1005F00000F04FFE48B9102C07D200222146501EB1
:1006000000F05EF800206C6070BD012070BD00003D
:100610004400002050000020214808B5816941F0C5
:1006200001018161816901F001010091C16941F01D
:100630008051C161C06900F080500090032000F03B
:100640005FF8002211466FF00B0000F039F800222D
:1006500011466FF00A0000F033F8002211466FF0E7
:10066000090000F02DF800221146501F00F028F874
:1006700000221146101F00F023F800221146901EA0
:1006800000F01EF800221146501E00F019F805482F
:10069000416821F0E06141F00071416008BD000057
:1006A000001002400000014000F01F0201219140B3
:1006B0004009800000F1E020C0F800117047000000
:1006C000F0B40E4B1B680C46C3F30223C3F10705BD
:1006D000042D00D90425191D072901D2002300E0AB
:1006E000DB1E012606FA05F1491E214099409E4075
:1006F000761E16403143F0BC00F080BF0CED00E0E8
:10070000064900F0070208684FF6FF03184040EA68
:100710000220034A10430860704700000CED00E01F
:100720000000FA052DE9F047DFF83C8105460E464A
:10073000D8F8000000F00700B0420CD2D8F8001042
:1007400021F007013143C8F80010D8F8000000F08C
:100750000700B04263D12878444C800705D5606813
:10076000A96820F0F000084360602878C00745D0F1
:100770006868012816D02168022816D08907002948
:100780004DDA616821F0030101436160FFF704FF66
:100790006968074641F2883001290FD00229814655
:1007A00019D027E021688903E9E78901E7E700BF5D
:1007B000FFF7F2FEC11B494501D918E08146606888
:1007C000C0F381000128F3D118E000BFFFF7E4FE79
:1007D000C11B49450BD86068C0F381000228F5D1E0
:1007E0000CE000BFFFF7D8FEC11B494502D903202A
:1007F000BDE8F087606810F00C0FF3D1D8F8001056
:10080000404601F00701B1420BD9016821F0070110
:1008100031430160006800F00700B04201D00120C0
:10082000E6E72878400705D56068E96820F4E060CD
:10083000084360602878000706D56068296920F4BD
:10084000605040EAC100606000F03CF86168084A0E
:10085000C1F30311515CC840064908600020FFF74E
:10086000BBFE0020C4E70000002002400010024050
:10087000682300085000002001480068704700000D
:10088000500000200448054900684968044AC1F343
:100890000221515CC8407047500000200010024007
:1008A000782300080448054900684968044AC1F3F0
:1008B000C221515CC8407047500000200010024027
:1008C0007823000812A185B00FC98DE80F0014A08D
:1008D000144A006804905168134801F00C03042B7B
:1008E00010D0082B0ED1C1F38343C9031DF80300B8
:1008F0000AD5516804AAC1F34041515C0A4A5043E9
:10090000B0FBF1F005B0704708494843FAE7000032
:1009100002030405060708090A0B0C0D0E0F101040
:10092000010200000010024000127A0000093D00A0
:100930002DE9F84F04460078B94DC00748D06868E3
:10094000C0F38100012807D06868C0F38100022845
:1009500009D16868C00306D52868800338D5606867
:1009600000286FD034E06068B0F5803F0BD010B144
:10097000B0F5A02F11D0286820F4803028602868B6
:1009800020F4802002E0286840F48030286060680D
:1009900088B1FFF701FE064609E0286840F4802090
:1009A0002860F0E7FFF7F8FD801B642875D82868F9
:1009B0008003F7D50CE0FFF7EFFD064605E000BF2A
:1009C000FFF7EAFD801B6428F0D828688003F7D47D
:1009D0002078944E80074FF001094FF000083BD576
:1009E000686810F00C0F07D06868C0F38100022817
:1009F00009D16868C00306D42868800714D5206927
:100A000001281FD110E02069B0B1C6F80090FFF7AF
:100A1000C3FD074605E000BFFFF7BEFDC01B02286F
:100A2000C4D828688007F7D52868616920F0F800E5
:100A300040EAC10028600FE0C6F80080FFF7ACFD77
:100A4000074606E0E9E000BFFFF7A6FDC01B02284D
:100A500023D828688007F7D4207800072CD572485F
:100A6000A169D9B1C0F80090FFF796FD074604E0F0
:100A7000FFF792FDC01B02280FD8686A8007F7D5E0
:100A80006A484FF4FA510068B0FBF1F0009000BFE3
:100A90000098411E0091FAD20EE080E0C0F800807C
:100AA000FFF77AFD074604E0FFF776FDC01B02283A
:100AB00075D8686A8007F7D42078400760D5E86960
:100AC0000027C00008D4E86940F08050E861E86978
:100AD000012700F08050009055480168C90513D4E3
:100AE0000168834641F480710160FFF755FD82463D
:100AF00006E000BFFFF750FDA0EB0A0064284ED8C7
:100B0000DBF80000C005F5D5E06801280AD008B17F
:100B1000052813D0286A20F001002862286A20F0F6
:100B2000040002E0286A40F001002862E06841F217
:100B3000883B98B1FFF730FD82460BE0286A40F011
:100B400004002862EEE700BFFFF726FDA0EB0A01D4
:100B500059455AD8286A8007F6D50CE0FFF71CFDE6
:100B6000824605E0FFF718FDA0EB0A0159454CD875
:100B7000286A8007F6D41FB1E86920F08050E86148
:100B8000E06988B36968C1F38101022945D0022870
:100B9000C6F8608004D0FFF7FFFC044638E034E07C
:100BA000FFF7FAFC074604E0FFF7F6FCC01B02283B
:100BB0002BD828688001F7D4206AB0F5803F05D192
:100BC0006868A16820F4003008436860D4E908012F
:100BD0000843696821F4741108436860C6F860909E
:100BE000FFF7DAFC044606E015E000BFFFF7D4FC8F
:100BF000001B022809D828688001F7D50BE000BF48
:100C0000FFF7CAFC001B022802D90320BDE8F88FB9
:100C100028688001F4D40020F8E70120F6E70000FE
:100C20000010024000004242800442425000002076
:100C3000007000407047000038B504460068426804
:100C400081684B0605D4CB0703D0530601D5216C30
:100C500004E08B0707D5130605D5616C01B020466B
:100C6000BDE83040084711F0600F3FD093063DD5F6
:100C70004B060AD594F85130032B34D0636D43F002
:100C800004036365C36883680093890609D5616DB1
:100C900041F00101616581680091016821F0400126
:100CA0000160606D002821D02068416821F0E001DA
:100CB0004160012084F85100900718D020684168F5
:100CC00021F0030141600C4DE06C18B14563E06C0C
:100CD000FFF7BEFAA06C002808D04563A06CBDE801
:100CE0003840FFF7B5BAC1688068009038BD20462B
:100CF000FFF7A0FF38BD00004D16000870B50400D6
:100D000005D00025A56294F8510010B104E001203F
:100D100070BD204600F034F8022084F851002068AD
:100D2000016821F040010160D4E901010843D4E9E0
:100D300003121143084361690843218B01F40071D8
:100D40000843E1690843216A0843A16A084321680E
:100D50000860A069042101EA1040616A0843216823
:100D600048602168E06A08612068C16921F4006177
:100D7000C1616565012084F85100002070BD00004C
:100D800010B50068154986B0884224D11448C1695D
:100D900041F40041C161C069124C00F4004004906C
:100DA00028200090022001900320039069462046ED
:100DB000FFF7F8FA00211020CDE900010291694601
:100DC0002046FFF7EFFA002211463320FFF778FCA8
:100DD0003320FFF769FC06B010BD0000003C004066
:100DE00000100240000C01402DE9F84F0446406815
:100DF0000026984617460D464FF00409B0F5827F4D
:100E000001D1A06890B194F85000012819D04FF09A
:100E1000010B84F850B0FFF7BFFB009094F851002D
:100E20004FF0000A01280ED002267FE084F851908E
:100E300013460A462046CDF8008000F031F9BDE89F
:100E4000F88F0220FBE7002D6FD0002F6DD084F8C3
:100E50005190C4F854A0A563A787E787C4F830A0D1
:100E6000A4F834A0A4F836A0C4F840A0C4F844A064
:100E7000A0684FF40047B84204D12068016821F40B
:100E80008041016020680168490603D4016841F08F
:100E900040010160E068B8B133E020688168C907AB
:100EA00006D0007B05F8010BE08F401EE0870BE0C9
:100EB000B8F1000F23D0B8F1FF3F05D0FFF76CFB6E
:100EC0000099411A41451AD2E08F0028E5D11BE074
:100ED00020688168C90706D0C06825F8020BE08F3A
:100EE000401EE0870DE0B8F1000F08D0B8F1FF3FD9
:100EF00007D0FFF751FB0099411A414501D3032662
:100F000014E0E08F0028E3D16068B0F5827F0AD159
:100F1000A068B84202D0B0F5806F04D120680168A3
:100F200021F040010160606D00B1012684F851B0EC
:100F300084F850A0304682E72DE9F84F044690F837
:100F400050000026994617460D4601280DD04FF057
:100F5000010B84F850B0FFF71FFB804694F8510056
:100F6000B246012804D0022694E00220BDE8F88FA2
:100F7000002D7BD0002F79D0032084F85100C4F8D5
:100F800054A02563A786E786C4F838A0A4F83CA03F
:100F9000A4F83EA0C4F844A0C4F840A0A068B0F5EE
:100FA000004F04D12068016841F48041016020684D
:100FB0000168490603D4016841F040010160E0681E
:100FC000B0F5006F606804D030B3E08E012823D004
:100FD0003EE010B1E08E01281AD135F8021B2068DE
:100FE00005E020688168890706D535F8021BC160D5
:100FF000E08E401EE0860BE0B9F1000F34D0B9F16D
:10100000FF3F05D0FFF7C8FAA0EB080149452BD2F6
:10101000E08E0028E5D11EE0216815F8010B087369
:1010200006E020688168890706D515F8011B017361
:10103000E08E401EE0860BE0B9F1000F14D0B9F14C
:10104000FF3F05D0FFF7A8FAA0EB080149450BD2F6
:10105000E08E0028E5D14B46012202212046CDF842
:10106000008000F08BFC10B1032613E011E0424633
:101070004946204600F0DAFA18B1012620206065C2
:1010800008E0A06818B92068C16880680090606DA9
:1010900000B1012684F851B084F850A0304665E7CD
:1010A0002DE9F84F044690F8500000260A9F9A4612
:1010B00093460D464FF0010801280ED0012084F818
:1010C0005000FFF769FA814694F8510061680128E1
:1010D0000CD0B1F5827F07D102E00220BDE8F88F85
:1010E000A16809B9042801D00226BDE055B1BBF1C1
:1010F000000F07D0BAF1000F04D094F85100012876
:1011000002D004E00126AFE0052084F85100002061
:101110006065C4F838B0A4F83EA0A4F83CA02563EC
:10112000A4F836A0A4F834A02064606420680168A4
:10113000490603D4016841F040010160E068B0F560
:10114000006F606804D0E8B3E08E01283BD06AE00D
:1011500010B1E08E01282ED1216835F8020BC8604D
:10116000E08E401EE08626E0B8F1000F0DD0E08E44
:1011700058B120688168890707D535F8021BC1601E
:10118000E08E401EE0864FF00008E08F58B12068E6
:101190008168C90707D0C0682BF8020BE08F401E9A
:1011A000E0874FF00108781C05D0FFF7F5F9A0EBB8
:1011B0000900B84246D2E08E0028D5D1E08F002841
:1011C000D2D136E0FFE7216815F8010B0873E08EF5
:1011D000401EE08627E000BFB8F1000F0DD0E08E82
:1011E00058B120688168890707D515F8011B01737C
:1011F000E08E401EE0864FF00008E08F58B1206876
:101200008168C90707D0C0680BF8010BE08F401E4A
:10121000E0874FF00108781C05D0FFF7BDF9A0EB7F
:101220000900B8420ED2E08E0028D5D1E08F002808
:10123000D2D13B46012202212046CDF8009000F099
:101240009DFB08B103260FE04A463946204600F0D0
:10125000EDF918B101262020606505E0A06818B9F5
:101260002068C16880680090012084F85100002047
:1012700084F85000304631E74FF0E0210428086937
:1012800003D020F004000861704740F00400FAE742
:10129000704710B5401EB0F1807F01D3012010BD12
:1012A0004FF0E02460610F21601700F0A7F90020E3
:1012B000A06107202061002010BD10B5FFF7E8FFF6
:1012C00010BD704770B5026804461068D168536954
:1012D00010F00F0F50D003F0010501F49076354364
:1012E0005DD0C20705D0CA0503D5E26B42F001020A
:1012F000E263420705D5DA0703D0E26B42F002024F
:10130000E263820705D5DA0703D0E26B42F00402FC
:10131000E263020705D5DA0703D0E26B42F0080268
:10132000E263E26B002A33D0800604D5880602D53A
:10133000204600F0E3FB20684069E16BC0F38010B9
:10134000090700D428B3204600F0CAFB2068416991
:1013500049061AD5416921F040014161606BA0B195
:101360001B494163606BFEF773FF002810D0606B70
:10137000416BBDE870400847830610D58B060ED53B
:101380002046BDE8704000F0B9BB2046FFF799FF4A
:1013900070BD2046FFF795FF0020E06370BD030697
:1013A00006D50B0604D52046BDE8704000F0AABC67
:1013B0004006F3D54806F1D5D168204621F040011A
:1013C000D160202184F8391000F0F1F870BD0000E0
:1013D000D11A000870B5040004D094F83900002533
:1013E00010B106E0012070BD84F83850204600F0AE
:1013F00023F8242084F839002068C16821F40051C2
:10140000C160204600F0C6FB2068016921F49041CC
:1014100001612068416921F02A0141612068C168A9
:1014200041F40051C160E563202084F8390084F85C
:101430003A00002070BD000010B50068154986B064
:10144000884225D11448816941F4804181618069D5
:10145000124C00F4804004904FF400700090022081
:1014600001900320039069462046FEF79BFF002170
:101470002015CDE90001029169462046FEF792FF52
:10148000002211462520FFF71BF92520FFF70CF954
:1014900006B010BD003801400010024000080140B5
:1014A00090F83A30202B22D1F9B1F2B190F83830CF
:1014B000012B1CD081628285C2850021C16322225A
:1014C00080F83A2080F838100168CA6842F48072C7
:1014D000CA6001684A6942F001024A610068C16855
:1014E00041F02001C16000207047012070470220B8
:1014F000704770472DE9F843044690F839001F46BD
:1015000016460D46202850D1A5B19EB194F838005A
:1015100001284AD0012084F838004FF00008C4F8B0
:101520003C80212084F83900FFF736F8A6848146F4
:10153000E68426E00120BDE8F883E08C401EE084CC
:10154000A0684B46B0F5805F4FF000024FF080017D
:101550002046009703D000F006FCE8B90DE000F04B
:1015600002FCC8B928882168C0F3080048602069D7
:1015700008B16D1C05E0AD1C03E0216815F8010BF6
:101580004860E08C0028D8D14B46002240212046FC
:10159000009700F0E8FB08B10320CCE7202084F896
:1015A000390084F838800020C5E70220C3E770477F
:1015B000FEE700000F4810B50D4901604FF482713D
:1015C0004160002102228160C0E9031201224261D0
:1015D000520282612822C0E90721416281620A2108
:1015E000C162FFF78BFB002800D0FEE710BD0000B2
:1015F000003C004058000020FEE770470907090E34
:10160000002806DA00F00F0000F1E02080F8141D39
:10161000704700F1E02080F8001470477047000028
:101620000148FFF709BB00005800002038B50B4601
:10163000009204460022802100F0A0F9002804D086
:10164000606D40F020006065032038BD10B5406A31
:101650000021C187C186FFF7EDFA10BD2DE9F041E9
:10166000DFF8508014460D4606464FF4004700222E
:1016700039464046FEF78AFF032000F02DF9C5F3F6
:10168000074000F029F9C5F3072000F025F9E8B27A
:1016900000F022F904E000BF00F0A0F806F8010B0A
:1016A000641EA4B2F8D239464046BDE8F04101229A
:1016B000FEF76CBF000801402DE9F04707460E46D3
:1016C00011F0FF00C0F10001CDB24FEA122402F088
:1016D000FF094FF4807A13D0F0B24042C0B206EB5B
:1016E00000080CB3501B80B2040A00F0FF092A4620
:1016F0003146384600F03EF83D44464657462AE01B
:101700006CB15546641EE4B20CD32A4631463846C5
:1017100000F030F806F5807607F58077F2E731467D
:10172000384621E04A46FAE7A945F8D9A9EB050071
:10173000C4B22A463146384600F01CF841467819B2
:10174000224611E03A463146284600F013F805F5E6
:10175000807506F58076641EE4B2F3D2B9F100001C
:1017600006D0024631462846BDE8F04700F002B8F0
:10177000BDE8F0872DE9F04114460D46064600F01D
:10178000D1F8DFF854804FF4004700223946404634
:10179000FEF7FCFE022000F09FF8C5F3074000F0C2
:1017A0009BF8C5F3072000F097F8E8B200F094F832
:1017B000B4F5807F04D9FF24307800F08DF8761CD2
:1017C000641EA4B2F8D2012239464046FEF7DEFE7E
:1017D000BDE8F04100F08CB80008014008B50020D9
:1017E0008DF800006423012269460348FFF7FCFAE4
:1017F0009DF8000008BD00005800002070B50F4E95
:101800004FF40045002229463046FEF7BFFEAB20CC
:1018100000F062F8FF2000F05FF8FF2000F05CF8B5
:10182000FF2000F059F8FFF7D9FF044601222946AE
:101830003046FEF7ABFE204670BD000000080140B8
:101840002DE9F0410F4F4FF4004600223146384653
:10185000FEF79CFE9F2000F03FF8FFF7BFFF054614
:10186000FFF7BCFF0446FFF7B9FF8046012231466F
:101870003846FEF78BFE280440EA042040EA0800C0
:10188000BDE8F0810008014070B5044600F04AF858
:1018900000F02EF80F4E4FF4004500222946304646
:1018A000FEF774FE202000F017F8C4F3074000F0A4
:1018B00013F8C4F3072000F00FF8E0B200F00CF8C2
:1018C000012229463046FEF761FEBDE8704000F077
:1018D0000FB800000008014001B5642301226946E9
:1018E0000248FFF729FB9DF8000008BD58000020C2
:1018F00070B50B4D4FF40044002221462846FEF7F8
:1019000045FE0520FFF7E8FFFFF768FFC007FBD1A2
:1019100021462846BDE870400122FEF737BE000090
:101920000008014070B5094D4FF4004400222146E3
:101930002846FEF72BFE0620FFF7CEFF214628465D
:10194000BDE870400122FEF721BE00000008014002
:1019500070B5094D4FF40044002221462846FEF799
:1019600015FEB920FFF7B8FF21462846BDE87040B4
:101970000122FEF70BBE0000000801402DE9F041F6
:101980001D4617460E460446DDF8188035E0681CF3
:1019900033D02DB1FEF700FEA0EB0800A8422CD3F7
:1019A0002068416821F0E00141606068B0F5827F05
:1019B0000BD1A068B0F5004F02D0B0F5806F04D114
:1019C0002068016821F040010160A06AB0F5005F65
:1019D0000AD1206801684DF6FF721140016020684D
:1019E000016841F400510160012084F85100002099
:1019F00084F850000320BDE8F0812068806836EA52
:101A0000000004D00020B842C1D10020F3E701203B
:101A1000F9E7704710B5FEF7C5FDBDE81040FFF7C8
:101A20004CBC30B58FB002250120049000951020E9
:101A3000059000244FF46010CDE9084007956846F2
:101A4000FEF776FF00B1FEE70F20CDE90A054FF45F
:101A50008060CDE90C4002210AA80E94FEF762FED8
:101A600000B1FEE7FEF708FF4FF47A71B0FBF1F02A
:101A7000FFF70FFC0420FFF7FFFB00221146501E6A
:101A8000FEF71EFE0FB030BD0D48016841F00101A8
:101A9000016041680B4A1140416001680A4A1140E7
:101AA0000160016821F480210160416821F4FE0198
:101AB00041604FF41F0181600449C0030860704712
:101AC000001002400000FFF8FFFFF6FE08ED00E006
:101AD00010B5406A0021C185C184FFF7F2FB10BD3B
:101AE0000168CA6822F49072CA6001684A6922F0EB
:101AF00001024A61202180F83A10704710B590F831
:101B00003A10222901D0022010BD8168B1F5805F12
:101B100011D00169002901681FD0496801F07F03D5
:101B2000816A4A1C82620B70C18D491E0904090C2E
:101B3000C18518D02BE00269816A002A02685268C8
:101B400005D0D2B20A80816A491C8162ECE7C2F3F7
:101B500008020A80816A891CF7E74A68816A4B1C7F
:101B600083620A70E0E70168CA6822F02002CA6056
:101B70000168CA6822F48072CA6001684A6922F06A
:101B800001024A61202180F83A10FFF7B2FC0020E0
:101B900010BD00002DE9F041044600680169E268CB
:101BA00021F44051114301612169A0680843616932
:101BB00008432168CA6841F20C639A430243CA6031
:101BC00020684169A26921F44071114341614C4987
:101BD00020686425322688423CD1FEF763FE00EB84
:101BE000C00101EB001061688900B0FBF1F7FEF75E
:101BF00059FE00EBC00101EB00106168B04689009E
:101C0000B0FBF1F0B0FBF5F06FF01801484307EBC3
:101C1000800106EB0110B0FBF5F000F0F006FEF7D6
:101C200041FE00EBC00101EB001061688900B0FBD0
:101C3000F1F0B0FBF5F006EB0016FEF733FE00EB1B
:101C4000C00101EB001061688900B0FBF1F7FEF7FD
:101C500029FE3BE0FEF716FE00EBC00101EB001091
:101C600061688900B0FBF1F7FEF70CFE00EBC001E4
:101C700001EB00106168B0468900B0FBF1F0B0FBE9
:101C8000F5F06FF01801484307EB800106EB0110F7
:101C9000B0FBF5F000F0F006FEF7F4FD00EBC0013C
:101CA00001EB001061688900B0FBF1F0B0FBF5F0CA
:101CB00006EB0016FEF7E6FD00EBC00101EB00109D
:101CC00061688900B0FBF1F7FEF7DCFD00EBC001B5
:101CD00001EB001061688900B0FBF1F0B0FBF5F09A
:101CE0006FF01801484307EB800108EB0110B0FBCF
:101CF000F5F0216800F00F0030448860BDE8F08105
:101D00000038014090F83910212901D00220704795
:101D10008168B1F5805F016A0BD04A1C02620268DB
:101D200009785160C18C491E0904090CC1840ED088
:101D300017E009880268C1F30801516001690029B0
:101D4000016A02D0491C0162ECE7891CFBE70168CB
:101D5000CA6822F08002CA600068C16841F0400190
:101D6000C160002070472DE9F041984617460E46A5
:101D70000446069D1DE0681C1BD02DB1FEF70CFC2F
:101D8000A0EB0800A84214D92068C16821F4D071E2
:101D9000C1602068416921F001014161202084F87F
:101DA000390084F83A00002084F838000320BDE8A8
:101DB000F0812068006836EA000004D00020B842B4
:101DC000D9D00020F3E70120F9E700000148FFF730
:101DD00079BA0000B0000020FEE700000FB4054B08
:101DE00010B503A9044A029800F018F810BC5DF879
:101DF00014FB0000DD2000085400002002E008C8A9
:101E0000121F08C1002AFAD170477047002001E074
:101E100001C1121F002AFBD1704700002DE9FF4FBE
:101E20008DB09B460F460446002606E025280BD0C1
:101E30005A460F999047641C761C20780028F5D1EB
:101E400011B03046BDE8F08F0025A8460122984920
:101E500000E0054314F8013F203B02FA03F008427A
:101E6000F7D120782E2817D114F8010F45F004057A
:101E70002A280ED06FF02F022078A0F13001092916
:101E80000AD808EB880102EB410100EB0108641C51
:101E9000F2E757F8048B641C20786C280DD004DC22
:101EA0004C2812D06A2811D104E074280DD07A2869
:101EB0000CD10AE045F4001507E0617845F480157F
:101EC000814202D1641C05F58015641C2278692AC0
:101ED00045D008DC002AB3D0582A69D0632A10D034
:101EE000642A08D13BE0702A67D0732A13D0752A80
:101EF0005CD0782A5CD010465A460F999047761CE1
:101F0000D3E017F8040B8DF8000000208DF80100D5
:101F1000E946012003E057F8049B4FF0FF306907C2
:101F20004FF0000501D40AE06D1C45450DDA8542ED
:101F3000FADB19F805100029F6D106E06D1C854280
:101F4000FCDB19F805100029F8D12E4404E019F83B
:101F5000010B5A460F9990476D1EF8D2A5E00A2052
:101F60000021CDE90801C5F3025002280DD001CFB0
:101F7000C117031E71F100030DDA4FF0000CD0EB16
:101F80000C006CEB01012D2308E0FF1D27F0070773
:101F9000F7E80201EDE72B0504D52B238DF8283057
:101FA00001233BE0EB0739D02023F7E70A2000E0CC
:101FB00010200021CDE9080107E01020002145F0A4
:101FC0000405CDE908014FF00808C5F302500228C6
:101FD0000FD001CF00214FF0000A2B071FD5702A28
:101FE0000DD0DDE908C38CF0100C5CEA030C0CD0BA
:101FF00015E0FF1D27F00707F7E80201EBE7402295
:102000008DF828204FF0010A0BE050EA010306D0BA
:1020100030238DF828308DF8292002239A46582A3B
:1020200004D024A20DF120090B9209E026A2F9E7C1
:10203000DDE90823FEF7A8F80B9B9B5C09F8013D3E
:1020400050EA0102F4D1ADEB090020300890680796
:1020500001D44FF001080899884502DDA8EB010082
:1020600000E000208046002506E00AA85A46405DB0
:102070000F9990476D1C761C5545F6DB04E0302027
:102080005A460F999047761CB8F10001A8F1010853
:10209000F5DC05E019F8010B5A460F999047761CBC
:1020A0000899481E08900029F4DC641CC5E600006D
:1020B000092801003031323334353637383961621E
:1020C00063646566000000003031323334353637E2
:1020D00038394142434445460000000013B56423AB
:1020E000012269460248FFF705FA00981CBD00006E
:1020F000B000002086B0FEF75DFAFFF792FC424880
:10210000816941F004018161816901F00401049158
:10211000816941F0080181618069012200F00800B5
:102120003A4DD403049021462846FEF72FFA0121A8
:102130000320CDE90210CDE9004169462846FEF7AB
:1021400031F9FFF737FA334831490C2201604FF477
:10215000E131416000218160C160C0E90412816108
:10216000C161FFF737F900B1FEE701222A4929488A
:10217000FFF796F9FFF742FB274C641E606027A02B
:10218000FFF72CFEC820FEF7FBF8FFF759FBA06015
:102190006268A1682CA0FFF721FEA0683849884238
:1021A0002FD138A0FFF71AFE0020FFF76DFB372272
:1021B000002104F10C00FFF77FFA04F10C013CA0B0
:1021C000FFF70CFE1348372200214030FFF746FA94
:1021D00010493FA04031FFF701FE0E493722403140
:1021E00004F10C00FEF723F820702078012806D0B7
:1021F0003FA000BFFFF7F2FDFFF7AAFBFEE747A0F5
:10220000F8E752A0F6E70000001002400008014085
:1022100000380140B0000020010000200D0A2054C9
:10222000686973206973206120324D20736572697B
:10223000616C20666C6173682028573235582E2EE9
:1022400029200D0A000000000D0A20466C61736809
:10225000494420697320307825582C20204D616E28
:10226000756661637475726572204465766963652D
:1022700020494420697320307825580D0A00000059
:102280001640E0000D0A204465746563746564209F
:1022900057696E626F6E642073657269616C206647
:1022A0006C6173682057323558333220210D0A0093
:1022B0000D0A205468652064617461207772697426
:1022C00074656E206973202573200D0900000000DD
:1022D0000D0A205468652064617461207265616430
:1022E000206F7574206973202573200D0A0000008B
:1022F0000D0A20324D2073657269616C20666C6135
:102300007368202857323558313629207465737424
:10231000206661696C6564210A0D00000D0A203297
:102320004D2073657269616C20666C61736820284A
:1023300057323558333229207465737420737563AE
:10234000636565646564210A0D0000000D0A204381
:10235000616E2774206765742057323558313620F6
:102360004944210A0D0000000000000000000000A8
:10237000010203040607080900000000010203042B
:10238000A02300080000002058000000FC1D0008E9
:10239000F823000858000020D00400000C1E00089C
:1023A000000000000000000000000000200D0A20D6
:1023B0002044616F20547579656E204D43414C2057
:1023C000766F20646F69207365727665722052564D
:1023D0004320687474703A2F2F676F6F676C652E97
:1023E000636F6D000100000010000000000000009D
:0823F00000A24A0400000000F5
:0400000508000131BD
:00000001FF
