:020000040800F2
:100000002804002045010008610C0008630C00086A
:10001000670C00086B0C00086F0C00080000000063
:10002000000000000000000000000000730C000849
:10003000750C000800000000770C0008790C00081F
:100040005F0100085F0100085F0100085F01000810
:100050005F0100085F0100087B0C00085F010008D9
:100060005F0100085F0100085F0100085F010008F0
:100070005F0100085F0100085F0100085F010008E0
:100080005F0100085F0100085F0100085F010008D0
:100090005F0100085F0100085F0100085F010008C0
:1000A0005F0100085F0100085F0100085F010008B0
:1000B0005F0100085F0100085F0100085F010008A0
:1000C0005F0100085F0100085F0100085F01000890
:1000D0005F0100085F0100085F0100085F01000880
:1000E0005F0100085F0100085F0100085F01000870
:1000F0005F0100085F0100085F0100085F01000860
:100100005F0100085F0100085F0100085F0100084F
:100110005F0100085F0100085F0100085F0100083F
:100120005F0100085F0100085F0100085F0100082F
:10013000DFF80CD000F022FE00480047390C000820
:10014000280400200648804706480047FEE7FEE7EF
:10015000FEE7FEE7FEE7FEE7FEE7FEE7FEE7FEE777
:1001600045020008310100080CB500200190009004
:100170006B48006840F480306949086000BF6848F7
:10018000006800F4003000900198401C0190009835
:1001900018B90198B0F5A06FF1D16148006810F46A
:1001A000003F02D00120009001E000200090009864
:1001B000012842D15B48006840F0100059490860AE
:1001C0000846006820F0030008600846006840F018
:1001D000020008605248406851494860084640683B
:1001E00048600846406840F48060486008464068BF
:1001F00020F47C1048600846406840F4E8104860ED
:100200000846006840F08070086000BF44480068FD
:1002100010F0007FFAD04248406820F003004049C7
:1002200048600846406840F00200486000BF3C4813
:10023000406800F00C000828F9D10CBD10B5FFF79C
:1002400093FF10BD10B53648006840F001003449F6
:10025000086008464068344908403149486008460B
:100260000068324908402E4908600846006820F4BA
:10027000802008600846406820F4FE0048604FF483
:100280001F008860FFF7DAFF4FF000602849086020
:1002900010BD10B5002100200022214B5B6803F047
:1002A0000C0121B1042906D0082928D107E0214BEF
:1002B000214C236027E01F4B1F4C236023E0184B89
:1002C0005B6803F47010164B5B6803F48032022302
:1002D00003EB904022B9194B4343174C23600DE0C8
:1002E0000F4B5B6813F4003F04D0144B4343124C94
:1002F000236003E00F4B43430F4C236003E00D4B9F
:100300000D4C236000BF00BF054B5B68C3F30313B4
:100310000B4CE15C084B1B68CB40074C236010BDC5
:1003200000100240002002400000FFF8FFFFF6FE30
:1003300008ED00E000127A000000002000093D00F6
:100340000400002031490143314A1160704770B503
:10035000002100230F22C4780CB32D4C246804F430
:10036000E064C4F5E064210AC1F10403CA404478A2
:1003700004FA03F18478144021430901254C0678DE
:10038000A155047804F01F050124AC4005786D11D7
:100390004FF0E02606EB8505C5F8004109E004783A
:1003A00004F01F050124AC401B4D0678761145F87A
:1003B000264070BD194A0A400243154B1B1F1A60A4
:1003C000704739B1124A121D12680243104B1B1DAF
:1003D0001A6006E00E4A121D126882430C4B1B1D68
:1003E0001A607047042808D14FF0E021096941F0F4
:1003F00004014FF0E022116107E04FF0E0210969AC
:1004000021F004014FF0E022116170470000FA056D
:100410000CED00E000E400E080E100E080FFFF1F61
:10042000002044490860091D0860091D0860091D75
:10043000086041483F4914310860704700213D4938
:100440008279002A3AD00A46126803689A430B461A
:100450001A600A1D126803689A430B1D1A6002791C
:1004600011440A6803681A430A60324A0832126863
:1004700003689A432F4B08331A601A1D12680368E9
:100480009A432C4B0C331A604279102A0ED11A1F52
:10049000126803681A43274B08331A601A1D126842
:1004A00003681A43234B0C331A600DE0214942794B
:1004B00011440A6803681A430A6005E0027911448E
:1004C0000A6803689A430A6070470021016001715D
:1004D0000C21417100218171704716491031096862
:1004E0000143144A10321160704701460020114A3E
:1004F000143212680A4201D0012000E00020704747
:100500000C49143108607047014600200022094B55
:100510001B6803EA0102074B14331B680B4202D02D
:100520000AB1012000E00020704702491431086040
:100530007047000000040140FFFF0F0010B50446A3
:10054000CA48844208D10121042000F027FB002181
:10055000042000F023FB46E0C548844208D1012175
:10056000082000F01BFB0021082000F017FB3AE0F8
:10057000C048844208D10121102000F00FFB002167
:10058000102000F00BFB2EE0BB48844208D1012173
:10059000202000F003FB0021202000F0FFFA22E0E1
:1005A000B648844208D10121402000F0F7FA00212A
:1005B000402000F0F3FA16E0B148844208D101214E
:1005C000802000F0EBFA0021802000F0E7FA0AE03A
:1005D000AC48844207D10121801500F0DFFA0021E8
:1005E000A01500F0DBFA10BD10B50121084600F09F
:1005F000D5FA0021012000F0D1FA10BD2DE9F0411B
:10060000024600250026002000230024002791F840
:1006100003C00CF00F0591F803C01CF0100F03D0BD
:1006200091F802C04CEA050591F800C0BCF1000F3A
:1006300031D0146800202BE04FF0010C0CFA00F3CD
:10064000B1F800C00CEA03069E4220D183004FF0AF
:100650000F0C0CFA03F7BC4305FA03FC4CEA040444
:1006600091F803C0BCF1280F06D14FF0010C0CFA31
:1006700000FCC2F814C00AE091F803C0BCF1480FB6
:1006800005D14FF0010C0CFA00FCC2F810C0401C60
:100690000828D1D31460B1F800C0BCF1FF0F34DDDD
:1006A000546800202EE000F1080C4FF0010808FA11
:1006B0000CF3B1F800C00CEA03069E4221D183007E
:1006C0004FF00F0C0CFA03F7BC4305FA03FC4CEA9D
:1006D000040491F803C0BCF1280F05D100F1080C07
:1006E00008FA0CF8C2F8148091F803C0BCF1480F66
:1006F00007D100F1080C4FF0010808FA0CF8C2F815
:100700001080401C0828CED35460BDE8F0814FF61D
:10071000FF710180022181700421C170704702467F
:10072000002093680B4201D0012000E000207047B8
:100730000146886880B2704702460020D3680B42A9
:1007400001D0012000E0002070470146C86880B257
:10075000704701617047416170470AB1016100E073
:1007600041617047C16070474FF480320A43826133
:100770008161826182698269704702460020424B32
:1007800018684FF68073184040EA021008433E4B49
:10079000186070473D49C8617047F0B50A460023AC
:1007A00000240021002500F00046B6F1004F02D1E0
:1007B000354EF16901E0344E7168C0F3034583B2F0
:1007C00000F44016B6F5401F08D121F070612E4E9E
:1007D000766826F070662C4F7E6012E000F480167A
:1007E000B6F5801F06D1032606FA05F4A14341F0B1
:1007F000706106E0460D360103FA06F6B14341F09A
:10080000706122B1460D360103FA06F6314300F05D
:100810000046B6F1004F02D11B4EF16101E01A4EC5
:100820007160F0BD30B500228B071C0F0F2303FA57
:1008300004F2154B08338C1053F824309343124CB8
:1008400008348D1044F8253023468C1053F824309A
:100850008C07240F00FA04F423430B4C08348D104A
:1008600044F8253030BD0A4908607047000801404F
:10087000000C01400010014000140140001801402C
:10088000001C014000200140000001400000204207
:10089000DC002042DD48006840F00100DB490860D0
:1008A00008464068DA490840D84948600846006868
:1008B000D8490840D54908600846006820F48020DF
:1008C00008600846406820F4FE0048604FF41F00AE
:1008D00088607047CD49096821F48031CB4A1160A6
:1008E0001146096821F480211160B0F5803F03D0E2
:1008F000B0F5802F0ED106E0C449096841F480317B
:10090000C24A116007E0C149096841F4A021BF4A09
:10091000116000E000BF00BF704710B50146002223
:10092000002300204A11012A02D1B84C236806E0B6
:10093000022A02D1B54C236A01E0B44C636A01F08B
:100940001F02012494401C4201D0012000E000203D
:1009500010BD38B5002000900024002500BF3120D4
:10096000FFF7DBFF05460098401C00900098B0F5AB
:10097000A06F01D0002DF2D03120FFF7CEFF08B1DB
:10098000012400E00024204638BD014600209F4A93
:10099000106820F0F80040EAC100106070479E49DE
:1009A0000860704702460020984B586820F47C107D
:1009B00042EA01031843954B586070479649086610
:1009C000704701460020914A506820F00300084318
:1009D000506070478D48406800F00C007047014639
:1009E00000208A4A506820F0F000084350607047A9
:1009F00001460020854A506820F4E06008435060BA
:100A0000704701460020814A506820F4605040EA57
:100A1000C1005060704729B17C4A527A02437B4B37
:100A20005A7204E0794A527A8243784B5A7270477C
:100A30007A490860704701460020744A506820F4E3
:100A400040400843506070470021754A11706F4A5A
:100A500082F82010012802D0042808D103E00121E7
:100A60006F4A117004E005216D4A117000E000BF6B
:100A700000BF70476B49086070476449096A0143C9
:100A8000624A11627047674944390860704730B55F
:100A900000210022002400235C4D6D6805F00C014C
:100AA00021B1042905D0082923D105E05E4D056058
:100AB00022E05D4D05601FE0544D6D6805F4701235
:100AC000524D6D6805F48034022505EB92421CB945
:100AD000564D554305600BE04C4D6D6815F4003FD5
:100AE00003D0524D5543056002E04F4D554305601C
:100AF00002E04D4D056000BF00BF444D6D6805F03C
:100B0000F00109094A4D6B5C0568DD4045603F4DC9
:100B10006D6805F4E061090A454D6B5C4568DD4090
:100B200085603A4D6D6805F46051C90A404D6B5CB3
:100B30004568DD40C560354D6D6805F44041890B61
:100B40003C4D6B5CC568B5FBF3F5056130BD29B163
:100B50002E4A526902432D4B5A6104E02B4A5269D6
:100B600082432A4B5A61704729B1284A926902434D
:100B7000264B9A6104E0254A92698243234B9A618D
:100B8000704729B1214AD2690243204BDA6104E05F
:100B90001E4AD26982431D4BDA61704729B11B4A54
:100BA000D2680243194BDA6004E0184AD2688243E3
:100BB000164BDA60704729B1144A12690243134B8D
:100BC0001A6104E0114A12698243104B1A6170479E
:100BD00014494039086070470F49C86470470B4991
:100BE000C87170470948406A40F080700749486200
:100BF000704701460020054A92680A4201D0012050
:100C000000E00020704701498872704700100240E0
:100C10000000FFF8FFFFF6FE00004242D80042420B
:100C2000201002408004424200127A0000093D0078
:100C3000140000202400002000F06CF80220074976
:100C40000860012080F3108800BF002080F3108826
:100C500000BF00F037F800BFFEE7000014080140B5
:100C6000704700BFFEE700BFFEE700BFFEE700BF22
:100C7000FEE7704770477047704710B50120FFF7D7
:100C800043FC40B10448006880F00200024908605B
:100C90000120FFF74AFC10BD0C08014008B54FF4D5
:100CA000C060FFF74FFB06208DF8000000208DF894
:100CB00001008DF8020001208DF803006846FFF75F
:100CC00046FB08BD0EB501210520FFF74DFFFFF7DC
:100CD000E5FF4FF48070ADF8080048208DF80B0058
:100CE00002A90B48FFF78AFC00210846FFF79AFD8E
:100CF0000120009000208DF804000C208DF80500E4
:100D000001208DF806006846FFF798FB0EBD000035
:100D10000008014008B501211C20FFF725FF012034
:100D2000ADF8000010208DF8030003208DF80200BC
:100D300069460F48FFF762FC1820ADF800006946CD
:100D40000C48FFF75BFC0220ADF8000069460A483A
:100D5000FFF754FC01210648FFF7FBFC182105486A
:100D6000FFF7F7FC02210448FFF7F3FC08BD000081
:100D7000000C01400010014000080140064C074DE6
:100D800006E0E06840F0010394E80700984710345B
:100D9000AC42F6D3FFF7D0F9C00D0008E00D000813
:100DA00002E008C8121F08C1002AFAD17047704734
:100DB000002001E001C1121F002AFBD17047000092
:100DC000E00D00080000002028000000A00D000831
:100DD000080E00082800002000040000B00D0008E4
:100DE00000A24A0400000000000000000102030409
:100DF00006070809000000000102030401020304C1
:080E00000607080902040608B8
:0400000508000131BD
:00000001FF
