:020000040800F2
:100000002806002045010008AF1100088B100008E9
:10001000AD110008010200081D1A000800000000D0
:10002000000000000000000000000000891200082D
:100030000302000800000000D11100088B1700081F
:100040005F0100085F0100085F0100085F01000810
:100050005F0100085F0100085F0100085F01000800
:100060005F0100085F0100085F0100085F010008F0
:100070005F0100085F0100085F0100085F010008E0
:100080005F0100085F0100085F0100085F010008D0
:100090005F0100085F0100085F0100085F010008C0
:1000A0005F0100085F0100085F0100085F010008B0
:1000B0005F0100085F0100085F0100085F010008A0
:1000C0005F0100085F0100085F0100085F01000890
:1000D0005F0100085F0100085F0100085F01000880
:1000E0005F0100085F0100085F0100085F01000870
:1000F0005F0100085F0100085F0100085F01000860
:100100005F0100085F0100085F0100085F0100084F
:100110005F0100085F0100085F0100085F0100083F
:100120005F0100085F0100085F0100085F0100082F
:10013000DFF80CD000F052F800480047ED1D000831
:10014000280600200648804706480047FEE7FEE7ED
:10015000FEE7FEE7FEE7FEE7FEE7FEE7FEE7FEE777
:10016000011800083101000840EA01039B0703D091
:1001700009E008C9121F08C0042AFAD203E011F8E6
:10018000013B00F8013B521EF9D27047D2B201E0A8
:1001900000F8012B491EFBD270470022F6E710B58C
:1001A00013460A4604461946FFF7F0FF204610BDE5
:1001B00030B50B46014600202022012409E021FA37
:1001C00002F59D4205D303FA02F5491B04FA02F534
:1001D0002844151EA2F10102F1DC30BD064C074D8A
:1001E00006E0E06840F0010394E807009847103407
:1001F000AC42F6D3FFF7A0FF88200008A820000833
:10020000FEE7704770B5044600F00CF90546601C27
:1002100002D004480078044400F004F9401BA042D6
:10022000FAD370BD100000202DE9F84FDFF8B8A117
:1002300000220AF1040B144601274FF00F090BF1BD
:10024000040E00BF0B6807FA04F52B40AB4274D1D3
:10025000DFF898C14E68A6EB0C0866452BD00DDC84
:10026000032E34D005DC36B3012E19D0022E2FD147
:100270001BE0112E16D0122E2AD119E0B8F5881FD6
:1002800019D006DCB8F5803F15D0B8F5801F1FD116
:1002900011E0B8F5001F0ED0B8F5041F18D10AE020
:1002A000CA6815E0CA68121D12E0CA6808320FE079
:1002B000CA680C320CE08A682AB1012A4FF00802A1
:1002C00003D0456104E0042202E0056100E0002261
:1002D000FF2B01D8064601E000F104064FEA840531
:1002E00001D9A5F12005D6F800C009FA05F82CEAD5
:1002F000080C02FA05F54CEA050CC6F800C04D687A
:10030000ED006AD53A4DAE6946F00106AE61AD69C1
:1003100024F0030605F001050095364D06EB050CAB
:10032000DCF80850A6074FEA167809FA08F6B54334
:10033000314EB04202D100261AE04EE02F4EB042BC
:1003400001D1012614E02E4EB04201D102260FE069
:100350002C4EB04201D103260AE02B4EB04201D10F
:10036000042605E0294EB04201D1052600E006260C
:1003700006FA08F62E43CCF808604D68DAF80060FB
:10038000ED03554601D51E4300E09E432E604D68A7
:10039000AD0305D5DBF800601E43CBF8006004E038
:1003A000DBF800509D43CBF800504D68DEF800604C
:1003B000ED02754601D51E4300E09E432E604D6858
:1003C000AD0205D5084D0C352E681E432E6004E0A5
:1003D000054E0C3635689D433560641C102CFFF4C7
:1003E00031AFBDE8F88F000000040140000011109B
:1003F000001002400000014000080140000C0140D4
:10040000001001400014014000180140001C014090
:100410008068084000D0012070470AB10161704730
:100420000904FBE7014880687047000010000020C5
:1004300002488168027811448160704710000020F2
:10044000074810B5016841F010010160032000F079
:1004500091F8002000F006F800F024F8002010BD0C
:100460000020024070B50D4D04464FF47A71287893
:10047000B1FBF0F00A490968B1FBF0F000F033FD80
:1004800048B9102C07D200222146501E00F052F825
:1004900000206C6070BD012070BD000010000020C5
:1004A0001C000020214808B5816941F001018161EB
:1004B000816901F001010091C16941F08051C16180
:1004C000C06900F080500090032000F053F8002233
:1004D00011466FF00B0000F02DF8002211466FF06E
:1004E0000A0000F027F8002211466FF0090000F022
:1004F00021F800221146501F00F01CF8002211467E
:10050000101F00F017F800221146901E00F012F89C
:1005100000221146501E00F00DF80548416821F0F8
:10052000E06141F00071416008BD00000010024030
:1005300000000140F0B40E4B1B680C46C3F30223CD
:10054000C3F10705042D00D90425191D072901D27F
:10055000002300E0DB1E012606FA05F1491E2140BA
:1005600099409E40761E16403143F0BC00F020BEFC
:100570000CED00E0064900F0070208684FF6FF03A3
:10058000184040EA0220034A104308607047000008
:100590000CED00E00000FA052DE9F047DFF83C81A2
:1005A00005460E46D8F8000000F00700B0420CD215
:1005B000D8F8001021F007013143C8F80010D8F82E
:1005C000000000F00700B04263D12878444C800757
:1005D00005D56068A96820F0F000084360602878BD
:1005E000C00745D06868012816D02168022816D0B7
:1005F000890700294DDA616821F003010143616038
:10060000FFF710FF6968074641F2883001290FD0D3
:100610000229814619D027E021688903E9E7890189
:10062000E7E700BFFFF7FEFEC11B494501D918E00F
:1006300081466068C0F381000128F3D118E000BF53
:10064000FFF7F0FEC11B49450BD86068C0F381007D
:100650000228F5D10CE000BFFFF7E4FEC11B4945BD
:1006600002D90320BDE8F087606810F00C0FF3D1C9
:10067000D8F80010404601F00701B1420BD90168DB
:1006800021F0070131430160006800F00700B0422B
:1006900001D00120E6E72878400705D56068E968C1
:1006A00020F4E060084360602878000706D56068A1
:1006B000296920F4605040EAC100606000F03CF815
:1006C0006168084AC1F30311515CC84006490860DB
:1006D0000020FFF7C7FE0020C4E700000020024012
:1006E00000100240702000081C0000200148006833
:1006F000704700001C000020044805490068496854
:10070000044AC1F30221515CC84070471C0000201C
:10071000001002408020000804480549006849682C
:10072000044AC1F3C221515CC84070471C0000203C
:10073000001002408020000812A185B00FC98DE88A
:100740000F0014A0144A006804905168134801F087
:100750000C03042B10D0082B0ED1C1F38343C90323
:100760001DF803000AD5516804AAC1F34041515C49
:100770000A4A5043B0FBF1F005B0704708494843BE
:10078000FAE7000002030405060708090A0B0C0D2E
:100790000E0F1010010200000010024000127A003B
:1007A00000093D002DE9F84F04460078B94DC00717
:1007B00048D06868C0F38100012807D06868C0F39A
:1007C0008100022809D16868C00306D52868800323
:1007D00038D5606800286FD034E06068B0F5803F9D
:1007E0000BD010B1B0F5A02F11D0286820F48030C4
:1007F0002860286820F4802002E0286840F48030D7
:100800002860606888B1FFF70DFE064609E0286899
:1008100040F480202860F0E7FFF704FE801B642886
:1008200075D828688003F7D50CE0FFF7FBFD064676
:1008300005E000BFFFF7F6FD801B6428F0D82868AC
:100840008003F7D42078944E80074FF001094FF0D1
:1008500000083BD5686810F00C0F07D06868C0F33B
:100860008100022809D16868C00306D4286880077F
:1008700014D5206901281FD110E02069B0B1C6F855
:100880000090FFF7CFFD074605E000BFFFF7CAFD68
:10089000C01B0228C4D828688007F7D5286861697A
:1008A00020F0F80040EAC10028600FE0C6F80080A0
:1008B000FFF7B8FD074606E0E9E000BFFFF7B2FD2D
:1008C000C01B022823D828688007F7D420780007A7
:1008D0002CD57248A169D9B1C0F80090FFF7A2FDEC
:1008E000074604E0FFF79EFDC01B02280FD8686A88
:1008F0008007F7D56A484FF4FA510068B0FBF1F071
:10090000009000BF0098411E0091FAD20EE080E0F6
:10091000C0F80080FFF786FD074604E0FFF782FD80
:10092000C01B022875D8686A8007F7D42078400772
:1009300060D5E8690027C00008D4E86940F080501D
:10094000E861E869012700F080500090554801688F
:10095000C90513D40168834641F480710160FFF733
:1009600061FD824606E000BFFFF75CFDA0EB0A00D8
:1009700064284ED8DBF80000C005F5D5E0680128F2
:100980000AD008B1052813D0286A20F00100286297
:10099000286A20F0040002E0286A40F00100286282
:1009A000E06841F2883B98B1FFF73CFD82460BE0DE
:1009B000286A40F004002862EEE700BFFFF732FD2E
:1009C000A0EB0A0159455AD8286A8007F6D50CE0F1
:1009D000FFF728FD824605E0FFF724FDA0EB0A01A2
:1009E00059454CD8286A8007F6D41FB1E86920F031
:1009F0008050E861E06988B36968C1F38101022928
:100A000045D00228C6F8608004D0FFF70BFD0446ED
:100A100038E034E0FFF706FD074604E0FFF702FD8B
:100A2000C01B02282BD828688001F7D4206AB0F5B3
:100A3000803F05D16868A16820F4003008436860F1
:100A4000D4E908010843696821F474110843686017
:100A5000C6F86090FFF7E6FC044606E015E000BF2C
:100A6000FFF7E0FC001B022809D828688001F7D5B1
:100A70000BE000BFFFF7D6FC001B022802D90320C1
:100A8000BDE8F88F28688001F4D40020F8E7012041
:100A9000F6E700000010024000004242800442429B
:100AA0001C0000200070004090F85100704770B5A5
:100AB000040005D00025A56294F8510010B104E0AF
:100AC000012070BD204600F033F8022084F8510068
:100AD0002068016821F040010160D4E90101084368
:100AE000D4E903121143084361690843218B01F4DF
:100AF00000710843E1690843216A0843A16A084379
:100B000021680860A069042101EA1040616A084375
:100B1000216848602168E06A08612068C16921F4A1
:100B20000061C1616565012084F85100002070BD3D
:100B300010B50068124986B088421ED11148C169BB
:100B400041F48041C161C0690F4C00F480400490C1
:100B50004FF420400090022001900320039069464A
:100B60002046FFF761FB00214FF48040CDE90001F2
:100B7000029169462046FFF757FB06B010BD000002
:100B80000038004000100240000C01402DE9F84FF1
:100B9000044690F850000026994617460D46012855
:100BA0000DD04FF0010B84F850B0FFF73BFC8046AE
:100BB00094F85100B246012804D0022694E00220A5
:100BC000BDE8F88F002D7BD0002F79D0032084F86A
:100BD0005100C4F854A02563A786E786C4F838A05E
:100BE000A4F83CA0A4F83EA0C4F844A0C4F840A0D7
:100BF000A068B0F5004F04D12068016841F480413D
:100C0000016020680168490603D4016841F0400191
:100C10000160E068B0F5006F606804D030B3E08E2A
:100C2000012823D03EE010B1E08E01281AD135F81A
:100C3000021B206805E020688168890706D535F821
:100C4000021BC160E08E401EE0860BE0B9F1000F90
:100C500034D0B9F1FF3F05D0FFF7E4FBA0EB08016A
:100C600049452BD2E08E0028E5D11EE0216815F819
:100C7000010B087306E020688168890706D515F81E
:100C8000011B0173E08E401EE0860BE0B9F1000FFE
:100C900014D0B9F1FF3F05D0FFF7C4FBA0EB08016A
:100CA00049450BD2E08E0028E5D14B4601220221B6
:100CB0002046CDF8008000F09CFA10B1032613E026
:100CC00011E042464946204600F083FA18B1012659
:100CD0002020606508E0A06818B92068C1688068B5
:100CE0000090606D00B1012684F851B084F850A0E6
:100CF000304665E72DE9F84F044690F8500000268D
:100D00000A9F9A4693460D464FF0010801280ED0DF
:100D1000012084F85000FFF785FB814694F85100CC
:100D2000616801280CD0B1F5827F07D102E0022072
:100D3000BDE8F88FA16809B9042801D00226BDE0FA
:100D400055B1BBF1000F07D0BAF1000F04D094F8F1
:100D50005100012802D004E00126AFE0052084F80C
:100D6000510000206065C4F838B0A4F83EA0A4F893
:100D70003CA02563A4F836A0A4F834A020646064E5
:100D800020680168490603D4016841F04001016010
:100D9000E068B0F5006F606804D0E8B3E08E012829
:100DA0003BD06AE010B1E08E01282ED1216835F8E1
:100DB000020BC860E08E401EE08626E0B8F1000F0E
:100DC0000DD0E08E58B120688168890707D535F8C5
:100DD000021BC160E08E401EE0864FF00008E08FED
:100DE00058B120688168C90707D0C0682BF8020B8A
:100DF000E08F401EE0874FF00108781C05D0FFF718
:100E000011FBA0EB0900B84246D2E08E0028D5D1F4
:100E1000E08F0028D2D136E0FFE7216815F8010BFA
:100E20000873E08E401EE08627E000BFB8F1000F97
:100E30000DD0E08E58B120688168890707D515F874
:100E4000011B0173E08E401EE0864FF00008E08F2A
:100E500058B120688168C90707D0C0680BF8010B3A
:100E6000E08F401EE0874FF00108781C05D0FFF7A7
:100E7000D9FAA0EB0900B8420ED2E08E0028D5D1F5
:100E8000E08F0028D2D13B46012202212046CDF836
:100E9000009000F0AEF908B103260FE04A4639464B
:100EA000204600F096F918B101262020606505E083
:100EB000A06818B92068C16880680090012084F893
:100EC0005100002084F85000304631E74FF0E02117
:100ED0000428086903D020F004000861704740F03E
:100EE0000400FAE7704710B5401EB0F1807F01D3CF
:100EF000012010BD4FF0E02460610F21601700F069
:100F000057F90020A06107202061002010BD10B516
:100F1000FFF7E8FF10BD70B5040004D094F8390065
:100F2000002510B106E0012070BD84F8385020463D
:100F300000F022F8242084F839002068C16821F4E8
:100F40000051C160204600F07FFC2068016921F457
:100F5000904101612068416921F02A0141612068C6
:100F6000C16841F40051C160E563202084F8390074
:100F700084F83A00002070BD10B50068114986B0B1
:100F800088421DD11048816941F4804181618069A6
:100F90000E4C00F4804004904FF40070009002204A
:100FA00001900320039069462046FFF73DF9002198
:100FB0002015CDE90001029169462046FFF734F97A
:100FC00006B010BD0038014000100240000801408A
:100FD0002DE9F843044690F839001F4616460D46A1
:100FE000202850D1A5B19EB194F8380001284AD0EC
:100FF000012084F838004FF00008C4F83C8021201C
:1010000084F83900FFF70EFAA6848146E68426E0CC
:101010000120BDE8F883E08C401EE084A0684B46C8
:10102000B0F5805F4FF000024FF08001204600973E
:1010300003D000F0C1FCE8B90DE000F0BDFCC8B978
:1010400028882168C0F308004860206908B16D1C39
:1010500005E0AD1C03E0216815F8010B4860E08C49
:101060000028D8D14B46002240212046009700F0AE
:10107000A3FC08B10320CCE7202084F8390084F8D1
:1010800038800020C5E70220C3E7FEE7F0B51B4823
:1010900085B0816941F004018161816901F0040139
:1010A0000491816941F0080181618069144F00F069
:1010B000080041F204060490002231463846FFF74A
:1010C000ACF900241020CDE9000469460D480294D3
:1010D000FFF7AAF80225CDE9005469463846029484
:1010E000FFF7A2F801AA0120009682E831006946C4
:1010F0003846FFF799F805B0F0BD00000010024037
:10110000000C014000080140104810B50E49016074
:101110004FF48271416000218160C1604FF4007220
:101120000161C0E90512C1610162416281620A2167
:10113000C162FFF7BCFC002805D0BDE81040452186
:1011400003A000F06CBC10BD003800408C010020F2
:101150002E2E2F5372632F7370692E6300000000D0
:101160000D4810B50B4901604FF4E1314160002199
:1011700081600C22C160C0E904128161C161FFF786
:10118000CAFE002805D0BDE81040422103A000F0AF
:1011900046BC10BD00380140E40100202E2E2F5324
:1011A00072632F75736172742E630000FEE77047DF
:1011B0000907090E002806DA00F00F0000F1E02010
:1011C00080F8141D704700F1E02080F8001470478B
:1011D000704738B50B46009204460022802100F08B
:1011E00008F8002804D0606D40F0200060650320FE
:1011F00038BD2DE9F0411D4617460E460446DDF880
:10120000188035E0681C33D02DB1FFF70BF9A0EB47
:101210000800A8422CD32068416821F0E001416019
:101220006068B0F5827F0BD1A068B0F5004F02D0A6
:10123000B0F5806F04D12068016821F040010160A1
:10124000A06AB0F5005F0AD1206801684DF6FF7210
:10125000114001602068016841F4005101600120E3
:1012600084F85100002084F850000320BDE8F0818C
:101270002068806836EA000004D00020B842C1D15E
:101280000020F3E70120F9E7704770B515460E46D8
:101290000446017200F0DCF984224D21204600F062
:1012A00027F9FF222421204600F022F901224021C3
:1012B000204600F01DF93F221121204600F018F9C8
:1012C000204600F042F932462221204600F010F973
:1012D0000F21204600F0FDF802460D21204600F0C7
:1012E00007F98D220121204600F002F9002084F840
:1012F0000A011821204600F0ECF8400703D503202E
:101300006072012070BD6D1E03D0012000F0ADF9A8
:10131000EFE7206800F0B5F9204600F099F90020C9
:1013200070BD70B516460C460546017200F090F986
:1013300087224D21284600F0DBF800222421284690
:1013400000F0D6F841224021284600F0D1F8284686
:1013500000F0FBF8F7221121284600F0C9F82246D8
:101360002221284600F0C4F80E21284600F0B1F8EA
:1013700002460D21284600F0BBF82221284600F045
:10138000A8F8A04203D102206872012070BD761E29
:10139000F3D1286800F075F9284600F059F90020CB
:1013A00070BD70B50446006800F061F908B304F13F
:1013B0000A004FF480710646FEF7EFFE102120462A
:1013C00000F087F802460D21204600F091F8A07940
:1013D00090B11321204600F07CF805462B4632469A
:1013E0000021204600F035F884F80A51204600F02C
:1013F000ACF894F80A0170BD257AEFE770B51D4688
:1014000013460A460446002100F042F88B220121CF
:10141000204600F06DF8206800F029F958B112213B
:10142000204600F056F8204600F08FF8204600F0E5
:10143000A3F9012070BD6D1E03D0012000F015F945
:10144000E9E7206800F01DF9204600F001F90020CE
:1014500070BD2DE9F0411E4617460C460546012B8E
:1014600014D90021286800F052F92146286800F0BC
:1014700020F9002404E000F02EF93855641CE4B291
:101480002868B442F7D3012100F041F9BDE8F081AA
:101490002DE9F0411E4617460C460546012B16D98C
:1014A0000021286800F033F944F08001286800F03A
:1014B00000F9002405E0395D286800F0FAF8641CA2
:1014C000E4B2B442F7D30121286800F020F9BDE866
:1014D000F08170B50446006800F0EBF8206800F079
:1014E000FAF805460121206800F011F9284670BD80
:1014F00070B50D46044616460068002100F007F955
:1015000045F08001206800F0D4F83146206800F0F2
:10151000D0F80121206800F0FAF870BD2DE9F047FD
:101520000446DDE908891D4616460F46006800F0AE
:10153000F8F827716671A57184F8078084F808901F
:101540002046BDE8F04700F083B8FF221221FFF7E4
:10155000CFBF00002DE9F0411C4615460F468046DE
:10156000069E00F000F90F2000F07FF8404600F0E2
:1015700078F8364907EB4700421803230621404616
:10158000FFF786FF31480921C01C425D4046FFF746
:10159000AFFF0B2211464046FFF7AAFF23220C2182
:1015A0004046FFF7A5FF294D0727ED1DE81D295DE2
:1015B000805D06292BD0022101EB0010C2B21D2153
:1015C0004046FFF795FF285D1E2107EB0010C2B2D1
:1015D0004046FFF78DFFFF221F214046FFF788FF9F
:1015E000002220214046FFF783FF0C2221214046A4
:1015F000FFF77EFF012241214046FFF779FF0021DE
:10160000404688F80A11BDE8F04100F0B5B8032162
:1016100001EB0010C2B21D214046FFF769FF285DB3
:101620001E2107EB0010C2B24046FFF761FF3121D7
:101630004046FFF74EFF00F0F80040F00502312170
:101640004046FFF755FF0C223721C1E7582000081C
:1016500008B5C1790091837942790179FFF77AFF62
:1016600008BD88220121FFF743BFFEF7CBBD10B5AF
:101670000189C06889B2FEF7CBFE012800D00020A6
:1016800010BD10B50446012100F041F82088002269
:1016900081B26068FEF7C1FE0120FFF7E6FF2088F7
:1016A000012281B26068FEF7B8FE6420FFF7DDFF1B
:1016B00010BD13B50446002100F029F84FF47A73E9
:1016C000012201A9A069FFF761FAA069FFF7ECF90F
:1016D0000128FAD11CBD3EB5044600208DF8080053
:1016E0008DF804000146204600F011F84FF47A709E
:1016F0000090012301AA02A9A069FFF7FBFAA069E3
:10170000FFF7D2F90128FAD19DF804003EBD012966
:1017100005D00022018A406989B2FEF77EBE01220F
:10172000F8E710B504460121FFF7F1FF20880122F8
:1017300081B26068BDE81040FEF76FBE70B5054627
:1017400090F80A0114460E46A04200D004462246F4
:1017500005F10A013046FEF707FD0020305585F8F7
:101760000A01204670BD10B5044608220121FFF78A
:10177000BFFE0020607210BD10B504460922012191
:10178000FFF7B6FE0120607210BD10B5FEF750FEE7
:10179000BDE81040FFF7BBBB30B58FB0022501207C
:1017A000049000951020059000244FF46010CDE9BE
:1017B000084007956846FEF7F5FF00B1FEE70F20E9
:1017C000CDE90A054FF48060CDE90C4002210AA85A
:1017D0000E94FEF7E1FE00B1FEE7FEF787FF4FF43F
:1017E0007A71B0FBF1F0FFF77EFB0420FFF76EFB90
:1017F00000221146501EFEF79DFE0FB030BD0000C6
:101800000D48016841F00101016041680B4A114037
:10181000416001680A4A11400160016821F4802199
:101820000160416821F4FE0141604FF41F018160B5
:101830000449C00308607047001002400000FFF830
:10184000FFFFF6FE08ED00E02DE9F04104460068D8
:101850000169E26821F44051114301612169A068E6
:101860000843616908432168CA6841F20C639A43DE
:101870000243CA6020684169A26921F440711143A2
:1018800041614C4920686425322688423CD1FEF7EC
:1018900043FF00EBC00101EB001061688900B0FB61
:1018A000F1F7FEF739FF00EBC00101EB00106168B2
:1018B000B0468900B0FBF1F0B0FBF5F06FF0180115
:1018C000484307EB800106EB0110B0FBF5F000F098
:1018D000F006FEF721FF00EBC00101EB001061688C
:1018E0008900B0FBF1F0B0FBF5F006EB0016FEF757
:1018F00013FF00EBC00101EB001061688900B0FB31
:10190000F1F7FEF709FF3BE0FEF7F6FE00EBC00142
:1019100001EB001061688900B0FBF1F7FEF7ECFE07
:1019200000EBC00101EB00106168B0468900B0FB1C
:10193000F1F0B0FBF5F06FF01801484307EB8001C0
:1019400006EB0110B0FBF5F000F0F006FEF7D4FE58
:1019500000EBC00101EB001061688900B0FBF1F001
:10196000B0FBF5F006EB0016FEF7C6FE00EBC0017B
:1019700001EB001061688900B0FBF1F7FEF7BCFED7
:1019800000EBC00101EB001061688900B0FBF1F0D1
:10199000B0FBF5F06FF01801484307EB800108EB4E
:1019A0000110B0FBF5F0216800F00F0030448860B2
:1019B000BDE8F081003801402DE9F0419846174616
:1019C0000E460446069D1DE0681C1BD02DB1FEF797
:1019D00029FDA0EB0800A84214D92068C16821F4B1
:1019E000D071C1602068416921F00101416120206E
:1019F00084F8390084F83A00002084F83800032085
:101A0000BDE8F0812068006836EA000004D00020BC
:101A1000B842D9D00020F3E70120F9E7FEE7FEE75E
:101A20000FB4054B10B503A9044A029800F02CF836
:101A300010BC5DF814FB0000D51D0008200000203C
:101A40000FB4084B10B504A902AA039800F01CF8C3
:101A5000044602A9002000F0B8F9204610BC5DF849
:101A600014FB0000CB1D000802E008C8121F08C1CB
:101A7000002AFAD170477047002001E001C1121F0F
:101A8000002AFBD1704700002DE9FF4F8BB088463C
:101A90000546002606E025280BD0DDE90D1290470B
:101AA0006D1C761C28780028F5D10FB03046BDE8B3
:101AB000F08F0024A146A2460122AE4900E0044373
:101AC00015F8013F203B02FA03F00842F7D12878CD
:101AD0002A2810D06FF02F022878A0F130010929B0
:101AE00015D809EB890102EB410144F0020400EB37
:101AF00001096D1CF0E758F8041B5FEA010903D5E2
:101B000044F40054C9F1000944F002046D1C287823
:101B10002E2817D115F8010F44F004042A280ED0FE
:101B20006FF02F022878A0F1300109290AD80AEBBA
:101B30008A0102EB410100EB010A6D1CF2E758F843
:101B400004AB6D1C28786C280FD006DC4C2817D00D
:101B500068280DD06A2814D104E0742810D07A289F
:101B60000FD10DE044F400140AE044F4801401E0C5
:101B700044F440146978814202D104F580146D1C4C
:101B80006D1C2878692865D006DC00288DD0632874
:101B900027D0642806D15DE06E2808D073282AD0AB
:101BA000752877D0DDE90D129047761CE0E0C4F38C
:101BB0000250022809D003280DD0D8F800100428BC
:101BC0000DD00E6008F10408D2E0D8F80010F2172A
:101BD000C1E90062F6E7D8F800100E80F2E70E7057
:101BE000F0E718F8041B8DF8001000208DF80100B4
:101BF000EB46012003E058F804BB4FF0FF306107CB
:101C00004FF0000701D40AE07F1C57450DDA8742E8
:101C1000FADB1BF807100029F6D106E07F1C87428B
:101C2000FCDB1BF807100029F8D1DDE90D23A9EB37
:101C300007008146214600F0B1F83044C61904E09F
:101C4000DDE90D121BF8010B90477F1EF8D22146EB
:101C5000484688E058F8040BC4F302514FF00A0BD1
:101C6000032900D100B2042900D140B2002802DAD1
:101C700040422D2102E0210505D52B218DF82410AD
:101C8000012104E006E0E10710D02021F6E708AFCB
:101C9000089113E058F8040BC4F302514FF00A0BFB
:101CA000032900D180B2042900D1C0B20021EEE79F
:101CB0005946FEF77DFA303107F8011D0028F7D1AB
:101CC000ADEB070000F1200B600702D524F480344F
:101CD00001E04FF0010ADA4502DDAAEB0B0000E05B
:101CE0000020824600EB0B0108980144A9EB01009B
:101CF0000A90E00306D4DDE90D2321460A9800F09E
:101D00004DF806444FF0000908E009A911F8090050
:101D1000DDE90D12904709F10109761C0899894502
:101D2000F3DBE0030CD5DDE90D2321460A9800F032
:101D300035F8064404E0DDE90D1230209047761CAA
:101D4000BAF10001AAF1010AF5DC05E0DDE90D12A6
:101D500017F8010B9047761CBBF10001ABF1010BAA
:101D6000F4DC0A982146DDE90D2300F005F806446D
:101D70006D1C97E6092801002DE9F0410446002575
:101D80001E461746880404D405E039462020B04793
:101D90006D1C641EF9D52846BDE8F0812DE9F0419F
:101DA000044600251E469046C80301D5302700E0B2
:101DB0002027880404D505E041463846B0476D1C0D
:101DC000641EF9D52846BDE8F0810A68531C0B60F3
:101DD0001070704713B56423012269460248FFF76B
:101DE000F7F800981CBD0000E40100201CB5FEF7C8
:101DF00027FBFFF7D1FCFFF749F9FFF7B1F9FFF730
:101E000083F948A0FFF70CFE484C002048492060A9
:101E10004848C1601021816047498A14C0E9042103
:101E20004160042101604549816100F11C010860A5
:101E300043A0FFF7F5FD0A210320CDE900013D484D
:101E40000223012200211C30FFF768FB43A0FFF7AB
:101E5000E7FD20684FF4FA65012836482A464FF01E
:101E6000100100F11C002AD0FFF70FFA6060206813
:101E7000012827D041A0FFF7D3FD4FF47A70FEF779
:101E8000C1F941A0FFF7CCFD2A481C30FFF789FAC1
:101E90000146606042A0FFF7C3FD606800280ADDCC
:101EA0004349C2B2A1F58670FFF748FC404A41A001
:101EB0006168FFF7B5FD44A0FFF7B2FDD7E7FFF774
:101EC00030FAD3E746A0FFF7ABFD40F6C410FEF7AB
:101ED00099F947A0FFF7A4FD4BA13548A268FFF789
:101EE000AFFDC1B2E06013482A461C30FFF719FA73
:101EF0000146606047A0FFF793FD2D4948A0FFF71A
:101F00008FFD2B49227B2B46A1F58670FFF776FAD1
:101F100001466060A068401CA06045A0FFF780FDFE
:101F200048A0C9E768656C6C6F0D0A0000000020CE
:101F30000008014024000020000C01408C0100201A
:101F4000436F6E6669677572696E67204C6F526188
:101F5000206D6F64756C650D0A000000446F6E653E
:101F600020636F6E6669677572696E67204C6F5289
:101F7000614D6F64756C650D0A000000536C6176ED
:101F800065202E2E2E0D0A00526563656976696EF6
:101F900067207061636B6167652E2E2E0D0A00004D
:101FA00052656365697665643A2025640D0A000010
:101FB0004C010020436F6E74656E742028256429DF
:101FC0003A2025730D0A00005061636B616765203C
:101FD0007265636569766564202E2E2E0D0A0000F9
:101FE0004D6173746572202E2E2E0D0A00000000C4
:101FF00053656E64696E67207061636B6167652EFF
:102000002E2E0D0A0000000048656C6C6F202564C0
:1020100000000000456E7472793A2025640D0A00B4
:1020200053656E64696E672025730D0A0000000019
:102030005472616E736D697373696F6E3A202564B3
:102040000D0A00005061636B6167652073656E74F3
:102050002E2E2E0D0A0000006C8000FFFCF9F60603
:102060000708090A0B0C000102030405060708090A
:102070000000000000000000010203040607080938
:102080000000000001020304A82000080000002056
:1020900024000000681A0008CC200008240000205A
:1020A00004060000781A000800000000000000008C
:1020B000000000000000000001000000100000000F
:0C20C0000000000000A24A040000000024
:0400000508000131BD
:00000001FF
