:020000040800F2
:10000000382A0020010100087F14000803130008AB
:100010007D1400081B020008AD1B00080000000052
:100020000000000000000000000000002117000890
:100030001D02000800000000A1140008231700089A
:100040001B0100081B0100081B0100081B01000820
:100050001B0100081B0100081B0100081B01000810
:100060001B0100081B0100081B0100081B01000800
:100070001B0100081B0100081B0100081B010008F0
:100080001B0100081B0100081B0100081B010008E0
:100090001B0100081B0100081B0100081B010008D0
:1000A0001B0100081B0100081B0100081B010008C0
:1000B000DD1700081B0100081B0100081B010008D8
:1000C0001B0100081B0100081B0100081B010008A0
:1000D0001B0100081B0100081B0100081B01000890
:1000E0001B0100081B0100081B010008DFF80CD0F1
:1000F00000F072F80048004781300008382A0020DC
:100100000648804706480047FEE7FEE7FEE7FEE7B1
:10011000FEE7FEE7FEE7FEE7FEE7FEE795170008CD
:10012000ED000008202A04DB203A21FA02F0002129
:10013000704721FA02F3D040C2F1200291400843F7
:100140001946704740EA01039B0703D009E008C93C
:10015000121F08C0042AFAD203E011F8013B00F88C
:10016000013B521EF9D27047421C10F8011B0029B6
:10017000FBD1801A70472DE9F05F054600209246BA
:100180009B4688460646814640241BE02846414659
:1001900047462246FFF7C6FF53465A46C01A9141CA
:1001A00010D311461846224600F028F82D1A67EBA6
:1001B00001084F4622460120002100F01FF817EBEE
:1001C00000094E41201EA4F10104DFDC48463146FF
:1001D0002A464346BDE8F09F064C074D06E0E0681E
:1001E00040F0010394E8070098471034AC42F6D37E
:1001F000FFF780FFA83C0008C83C0008202A04DB69
:10020000203A00FA02F1002070479140C2F1200329
:1002100020FA03F3194390407047FEE7704700222D
:10022000AFF3008030B50E4B054601205C7A012CFF
:1002300015D8587A00241C54587A03EB8000456086
:100240005D7A03F108002A54587A421C5A72303001
:1002500008703A2048702F208870CC70002030BD84
:1002600028260020002100F001B800000B4910B53D
:1002700002464B7A0120002B0FD01278303AD2B2CE
:1002800001EB82035C68002C07D000200A44586010
:100290001072487A401E4872002010BD28260020A7
:1002A0002DE9F84FDFF890A100220AF1040B144663
:1002B00001274FF00F090BF1040E00BF0B6807FA7E
:1002C00004F52B40AB4274D1DFF870C14E68A6EB49
:1002D0000C0866452BD00DDC032E34D005DC36B37C
:1002E000012E19D0022E2FD11BE0112E16D0122E66
:1002F0002AD119E0B8F5881F19D006DCB8F5803F7F
:1003000015D0B8F5801F1FD111E0B8F5001F0ED031
:10031000B8F5041F18D10AE0CA6815E0CA68121DB2
:1003200012E0CA6808320FE0CA680C320CE08A6832
:100330002AB1012A4FF0080203D0456104E00422EB
:1003400002E0056100E00022FF2B01D8064601E033
:1003500000F104064FEA840501D9A5F12005D6F87D
:1003600000C009FA05F82CEA080C02FA05F54CEA77
:10037000050CC6F800C04D68ED0057D5304DAE698C
:1003800046F00106AE61AD6924F0030605F00105F3
:1003900000952C4D06EB050CDCF80850A6074FEA3B
:1003A000167809FA08F6B543274EB04202D1002666
:1003B00010E03BE0254EB04201D101260AE0244E78
:1003C000B04201D1022605E0224EB04201D10326FF
:1003D00000E0042606FA08F62E43CCF808604D68C3
:1003E000DAF80060ED03554601D51E4300E09E4358
:1003F0002E604D68DBF80060AD035D4601D51E43FD
:1004000000E09E432E604D68DEF80060ED02754608
:1004100001D51E4300E09E432E604D68AD020E4D97
:100420002E6801D51E4300E09E432E60641C102CF4
:10043000FFF444AFBDE8F88F000401400000111044
:10044000001002400000014000080140000C014083
:1004500000100140001401400C0401400AB1016188
:1004600070470904FBE700000148806870470000FE
:100470003000002002488168027811448160704792
:1004800030000020074810B5016841F010010160FC
:10049000032000F09DF8002000F006F800F024F89A
:1004A000002010BD0020024070B50D4D04464FF4F1
:1004B0007A712878B1FBF0F00A490968B1FBF0F0D5
:1004C00000F0A3FC48B9102C07D200222146501E90
:1004D00000F05EF800206C6070BD012070BD00006F
:1004E000300000203C000020214808B5816941F01F
:1004F00001018161816901F001010091C16941F04F
:100500008051C161C06900F080500090032000F06C
:100510005FF8002211466FF00B0000F039F800225E
:1005200011466FF00A0000F033F8002211466FF018
:10053000090000F02DF800221146501F00F028F8A5
:1005400000221146101F00F023F800221146901ED1
:1005500000F01EF800221146501E00F019F8054860
:10056000416821F0E06141F00071416008BD000088
:10057000001002400000014000F01F0201219140E4
:100580004009800000F1E020C0F800117047000031
:10059000F0B40E4B1B680C46C3F30223C3F10705EE
:1005A000042D00D90425191D072901D2002300E0DC
:1005B000DB1E012606FA05F1491E214099409E40A6
:1005C000761E16403143F0BC00F05ABF0CED00E03F
:1005D000064900F0070208684FF6FF03184040EA9A
:1005E0000220034A10430860704700000CED00E051
:1005F0000000FA052DE9F047DFF83C8105460E467C
:10060000D8F8000000F00700B0420CD2D8F8001073
:1006100021F007013143C8F80010D8F8000000F0BD
:100620000700B04263D12878444C800705D5606844
:10063000A96820F0F000084360602878C00745D022
:100640006868012816D02168022816D08907002979
:100650004DDA616821F0030101436160FFF704FF97
:100660006968074641F2883001290FD00229814686
:1006700019D027E021688903E9E78901E7E700BF8E
:10068000FFF7F2FEC11B494501D918E081466068B9
:10069000C0F381000128F3D118E000BFFFF7E4FEAA
:1006A000C11B49450BD86068C0F381000228F5D111
:1006B0000CE000BFFFF7D8FEC11B494502D903205B
:1006C000BDE8F087606810F00C0FF3D1D8F8001087
:1006D000404601F00701B1420BD9016821F0070142
:1006E00031430160006800F00700B04201D00120F2
:1006F000E6E72878400705D56068E96820F4E060FF
:10070000084360602878000706D56068296920F4EE
:10071000605040EAC100606000F03CF86168084A3F
:10072000C1F30311515CC840064908600020FFF77F
:10073000BBFE0020C4E70000002002400010024081
:10074000163700083C000020014800687047000090
:100750003C0000200448054900684968044AC1F388
:100760000221515CC84070473C000020001002404C
:10077000263700080448054900684968044AC1F35F
:10078000C221515CC84070473C000020001002406C
:100790002637000812A185B00FC98DE80F0014A0FC
:1007A000144A006804905168134801F00C03042BAC
:1007B00010D0082B0ED1C1F38343C9031DF80300E9
:1007C0000AD5516804AAC1F34041515C0A4A50431A
:1007D000B0FBF1F005B0704708494843FAE7000064
:1007E00002030405060708090A0B0C0D0E0F101072
:1007F000010200000010024000127A0000093D00D2
:100800002DE9F84F04460078B94DC00748D0686814
:10081000C0F38100012807D06868C0F38100022876
:1008200009D16868C00306D52868800338D5606898
:1008300000286FD034E06068B0F5803F0BD010B175
:10084000B0F5A02F11D0286820F4803028602868E7
:1008500020F4802002E0286840F48030286060683E
:1008600088B1FFF701FE064609E0286840F48020C1
:100870002860F0E7FFF7F8FD801B642875D828682A
:100880008003F7D50CE0FFF7EFFD064605E000BF5B
:10089000FFF7EAFD801B6428F0D828688003F7D4AE
:1008A0002078944E80074FF001094FF000083BD5A7
:1008B000686810F00C0F07D06868C0F38100022848
:1008C00009D16868C00306D42868800714D5206958
:1008D00001281FD110E02069B0B1C6F80090FFF7E1
:1008E000C3FD074605E000BFFFF7BEFDC01B0228A1
:1008F000C4D828688007F7D52868616920F0F80017
:1009000040EAC10028600FE0C6F80080FFF7ACFDA8
:10091000074606E0E9E000BFFFF7A6FDC01B02287E
:1009200023D828688007F7D4207800072CD5724890
:10093000A169D9B1C0F80090FFF796FD074604E021
:10094000FFF792FDC01B02280FD8686A8007F7D511
:100950006A484FF4FA510068B0FBF1F0009000BF14
:100960000098411E0091FAD20EE080E0C0F80080AD
:10097000FFF77AFD074604E0FFF776FDC01B02286B
:1009800075D8686A8007F7D42078400760D5E86991
:100990000027C00008D4E86940F08050E861E869A9
:1009A000012700F08050009055480168C90513D414
:1009B0000168834641F480710160FFF755FD82466E
:1009C00006E000BFFFF750FDA0EB0A0064284ED8F8
:1009D000DBF80000C005F5D5E06801280AD008B1B1
:1009E000052813D0286A20F001002862286A20F028
:1009F000040002E0286A40F001002862E06841F249
:100A0000883B98B1FFF730FD82460BE0286A40F042
:100A100004002862EEE700BFFFF726FDA0EB0A0105
:100A200059455AD8286A8007F6D50CE0FFF71CFD17
:100A3000824605E0FFF718FDA0EB0A0159454CD8A6
:100A4000286A8007F6D41FB1E86920F08050E86179
:100A5000E06988B36968C1F38101022945D00228A1
:100A6000C6F8608004D0FFF7FFFC044638E034E0AD
:100A7000FFF7FAFC074604E0FFF7F6FCC01B02286C
:100A80002BD828688001F7D4206AB0F5803F05D1C3
:100A90006868A16820F4003008436860D4E9080160
:100AA0000843696821F4741108436860C6F86090CF
:100AB000FFF7DAFC044606E015E000BFFFF7D4FCC0
:100AC000001B022809D828688001F7D50BE000BF79
:100AD000FFF7CAFC001B022802D90320BDE8F88FEB
:100AE00028688001F4D40020F8E70120F6E7000030
:100AF0000010024000004242800442423C000020BC
:100B00000070004070B5040005D00025A56294F87F
:100B1000510010B104E0012070BD204600F034F80F
:100B2000022084F851002068016821F04001016032
:100B3000D4E901010843D4E9031211430843616970
:100B40000843218B01F400710843E1690843216ADD
:100B50000843A16A084321680860A069042101EAEA
:100B60001040616A0843216848602168E06A0861B2
:100B70002068C16921F40061C1616565012084F8C4
:100B80005100002070BD000030B51E4D03680024E8
:100B90001D480221032285B0AB4212D1836943F480
:100BA000805383618069194D00F480500490A02027
:100BB000CDE90001039269462846FFF771FB40200A
:100BC00016E0134DAB421AD1C36943F48043C361AD
:100BD000C069104D00F4804004904FF42040CDE9EE
:100BE0000001039269462846FFF75AFB4FF4804004
:100BF000CDE90004694628460294FFF751FB05B091
:100C000030BD0000003001400010024000080140EB
:100C100000380040000C01402DE9F84F044690F8E0
:100C2000500000260A9F9A4693460D464FF0010851
:100C300001280ED0012084F85000FFF715FC8146F2
:100C400094F85100616801280CD0B1F5827F07D17A
:100C500002E00220BDE8F88FA16809B9042801D09C
:100C60000226BDE055B1BBF1000F07D0BAF1000F6D
:100C700004D094F85100012802D004E00126AFE02E
:100C8000052084F8510000206065C4F838B0A4F84D
:100C90003EA0A4F83CA02563A4F836A0A4F834A094
:100CA0002064606420680168490603D4016841F04B
:100CB00040010160E068B0F5006F606804D0E8B3FF
:100CC000E08E01283BD06AE010B1E08E01282ED1E1
:100CD000216835F8020BC860E08E401EE08626E0F1
:100CE000B8F1000F0DD0E08E58B1206881688907F7
:100CF00007D535F8021BC160E08E401EE0864FF03C
:100D00000008E08F58B120688168C90707D0C06823
:100D10002BF8020BE08F401EE0874FF00108781C93
:100D200005D0FFF7A1FBA0EB0900B84246D2E08E48
:100D30000028D5D1E08F0028D2D136E0FFE7216826
:100D400015F8010B0873E08E401EE08627E000BF17
:100D5000B8F1000F0DD0E08E58B120688168890786
:100D600007D515F8011B0173E08E401EE0864FF099
:100D70000008E08F58B120688168C90707D0C068B3
:100D80000BF8010BE08F401EE0874FF00108781C44
:100D900005D0FFF769FBA0EB0900B8420ED2E08E48
:100DA0000028D5D1E08F0028D2D13B460122022174
:100DB0002046CDF8009000F03BFC08B103260FE080
:100DC0004A463946204600F01DFC18B10126202075
:100DD000606505E0A06818B92068C1688068009067
:100DE000012084F85100002084F85000304631E79B
:100DF0004FF0E0210428086903D020F004000861C6
:100E0000704740F00400FAE7704710B5401EB0F19B
:100E1000807F01D3012010BD4FF0E02460610F21DD
:100E2000601700F02DFB0020A0610720206100204A
:100E300010BD10B5FFF7E8FF10BD7047704730B523
:100E400090F83C20012A20D0012280F83C20022387
:100E500080F83D3003685C6824F070045C600368CF
:100E60005C680D682C435C6003689C6824F0800417
:100E70009C6003689C6849680C439C6080F83D2036
:100E8000002180F83C10084630BD022030BD10B56E
:100E9000040003D094F83D0010B107E0012010BD1C
:100EA000002084F83C00204600F00CF8022084F872
:100EB0003D00211D206800F097FC012084F83D00D2
:100EC000002010BD08B50068B0F1804F12D10A486B
:100ED000C16941F00101C161C069002200F0010057
:100EE000009011461C20FFF753FBBDE808401C2072
:100EF000FFF742BB08BD0000001002400168CA684D
:100F000042F00102CA600068016841F0010101601D
:100F10000020704770B5044690F83C00012817D0B7
:100F2000012584F83C50022084F83D002068826846
:100F300022F0770222F47F4282600868502837D07E
:100F40000DDC202859D005DC88B3102841D151E0B0
:100F5000022070BD302853D040283AD13FE06028AD
:100F60002ED070280BD0B0F5805F03D0B0F5005FB5
:100F70002FD110E02068816821F0070115E0CB68CF
:100F8000D1E90121206800F065FC2168886840F003
:100F9000770088601DE0CB68D1E90121206800F06E
:100FA00059FC2068816841F48041816011E01EE0B5
:100FB000CA684968206800F05FFC5021206806E09C
:100FC000CA684968206800F068FC6021206800F069
:100FD0004BFC84F83D50002084F83C0070BDCA688A
:100FE0004968206800F048FC40212068EFE70021B4
:100FF0002068ECE710212068E9E720212068E6E777
:1010000030212068E3E7704770B504460068016945
:101010004FF00005C943890715D4C168C943890742
:1010200011D4E91E016101202077206880698007C2
:10103000204602D0FFF7E7FF04E000F098F82046D2
:1010400000F096F8257720680169C943490717D44D
:10105000C168C943490713D46FF00401016102203C
:1010600020772068806910F4407F204602D0FFF787
:10107000CAFF04E000F07BF8204600F079F82577FD
:1010800020680169C943090716D4C168C943090723
:1010900012D46FF008010161042020772068C06934
:1010A0008007204602D0FFF7AEFF04E000F05FF8B3
:1010B000204600F05DF8257720680169C943C9061C
:1010C00017D4C168C943C90613D46FF01001016178
:1010D000082020772068C06910F4407F204602D0A5
:1010E000FFF791FF04E000F042F8204600F040F8DE
:1010F000257720680169C943C90708D1C168C94378
:10110000C90704D1891E0161204600F033F8206828
:101110000169C943090609D4C168C943090605D450
:101120006FF0800101612046FFF787FE20680169AA
:10113000C943490609D4C168C943490605D46FF0BB
:1011400040010161204600F021F820680169C9438F
:1011500089060BD4C168C943890607D46FF0200102
:1011600001612046BDE87040FFF768BE70BD704762
:10117000704700000349884203D103494888401C56
:10118000488070473401002004000020704770B58B
:10119000040004D094F83900002510B106E00120C5
:1011A00070BD84F83850204600F022F8242084F8DE
:1011B00039002068C16821F40051C160204600F068
:1011C0007FFB2068016921F4904101612068416939
:1011D00021F02A0141612068C16841F40051C160D9
:1011E000E563202084F8390084F83A00002070BDBF
:1011F00010B50068114986B088421DD11048816938
:1012000041F48041816180690E4C00F4804004907B
:101210004FF4007000900220019003200390694673
:101220002046FFF73DF800212015CDE9000102918D
:1012300069462046FFF734F806B010BD003801407B
:1012400000100240000801402DE9F843044690F8E0
:1012500039001F4616460D46202850D1A5B19EB133
:1012600094F8380001284AD0012084F838004FF063
:101270000008C4F83C80212084F83900FFF7F4F816
:10128000A6848146E68426E00120BDE8F883E08C50
:10129000401EE084A0684B46B0F5805F4FF000022E
:1012A0004FF080012046009703D000F0C1FBE8B961
:1012B0000DE000F0BDFBC8B928882168C0F3080024
:1012C0004860206908B16D1C05E0AD1C03E0216891
:1012D00015F8010B4860E08C0028D8D14B4600225D
:1012E00040212046009700F0A3FB08B10320CCE783
:1012F000202084F8390084F838800020C5E70220D7
:10130000C3E7FEE710B504490448FEF788FF024929
:10131000491E087010BD00002900002014000020A4
:10132000F0B51E4885B0816941F010018161816985
:1013300001F010010491816941F00401816181692A
:1013400001F004010491816941F008018161806923
:10135000134E00F008004FF4005404900022214680
:101360003046FFF77BF80F4F002208213846FFF781
:1013700075F8009401240025CDE901456946304601
:101380000394FEF78DFF08208DE83100694638464A
:101390000394FEF785FF05B0F0BD00000010024089
:1013A00000100140000801400E4810B50C490160D2
:1013B0004FF48271416000218160C1604FF400727E
:1013C0000161C0E905121022C0E907214162816272
:1013D0000A21C162FFF796FB002800D0FEE710BD8E
:1013E00000300140840000200E4810B50C49016017
:1013F0004FF48271416000218160C1604FF400723E
:101400000161C0E905120822C0E907214162816239
:101410000A21C162FFF776FB002800D0FEE710BD6D
:1014200000380040DC00002010B5134886B04FF0B3
:101430008041016049F63F410024C0E901140A21BE
:10144000C0E903148461FFF722FD00B1FEE74FF409
:101450008050009069460848FFF75CFD00B1FEE748
:10146000049404A904480594FFF7E9FC002800D07F
:10147000FEE706B010BD000034010020FEE7704713
:101480000907090E002806DA00F00F0000F1E0203D
:1014900080F8141D704700F1E02080F800147047B8
:1014A0007047000003480021018001880229FCD315
:1014B000704700000600002070B50546512000F07E
:1014C00059F878B9FF2000F00FF900244FF6FF76A5
:1014D00000F0A8F8641CA4B2FE2801D0B442F7D3EF
:1014E000B44201D3052070BD00244FF4007600BF44
:1014F00000F098F82855641CA4B2B442F8D3FF2039
:1015000000F0F2F8FF2000F0EFF8002070BD70B599
:101510000546582000F02EF838BBFF2000F0E4F814
:10152000FE2000F0E1F800244FF40076285D00F082
:10153000DBF8641CA4B2B442F8D3FF2000F0D4F866
:10154000FF2000F0D1F800F06DF8052181430CD1A7
:1015500000244FF6FF7500F065F8641CA4B2FF2864
:1015600001D0AC42F7D3AC4201D3062070BD0020BD
:1015700070BD000070B504460D46000607D504F0A6
:101580007F0400217720FFF7F5FF012836D81C4E95
:10159000012208213046FEF761FFFF2000F0A4F889
:1015A000002208213046FEF759FFFF2000F09CF88A
:1015B000204600F099F8280E00F096F8C5F3074091
:1015C00000F092F8C5F3072000F08EF8E8B200F0C2
:1015D0008BF80120402C02D0482C02D002E095204C
:1015E00000E0872000F080F85FF00A0400F01AF8AD
:1015F000010603D5641E14F0FF04F7D170BD00008E
:101600000008014038B50B460092044600228021B4
:1016100000F00EF8002804D0606D40F020006065F6
:10162000032038BDFF2000F05FB8FF2000F05CB859
:101630002DE9F0411D4617460E460446DDF8188098
:1016400035E0681C33D02DB1FEF70EFFA0EB08008B
:10165000A8422CD32068416821F0E0014160606815
:10166000B0F5827F0BD1A068B0F5004F02D0B0F585
:10167000806F04D12068016821F040010160A06AF8
:10168000B0F5005F0AD1206801684DF6FF72114085
:1016900001602068016841F400510160012084F874
:1016A0005100002084F850000320BDE8F08120683C
:1016B000806836EA000004D00020B842C1D1002082
:1016C000F3E70120F9E770B500244FF6FF75FFF747
:1016D000A9FF641CA4B2FF2801D0AC42F7D3AC42EE
:1016E00000D3012070BD000001B582B000208DF84C
:1016F00004004FF480500090012301AA02A906487B
:10170000FFF78AFA28B100224FF400510348FEF790
:10171000A5FE9DF804000EBD8400002000100140CD
:10172000704710B5FEF7A6FEBDE81040FFF781BB7D
:1017300030B58FB00225012004900095102005904F
:1017400000244004CDE9084007956846FFF758F8A3
:1017500000B1FEE70F20CDE90A054FF48060CDE926
:101760000C4001210AA80E94FEF744FF00B1FEE7E9
:10177000FEF7EAFF4FF47A71B0FBF1F0FFF745FB9B
:101780000420FFF735FB00221146501EFEF700FF34
:101790000FB030BD0D48016841F0010101604168A2
:1017A0000B4A1140416001680A4A1140016001681A
:1017B00021F480210160416821F4FE0141604FF471
:1017C0001F0181600449C003086070470010024097
:1017D0000000FFF8FFFFF6FE08ED00E00148FFF70C
:1017E00013BC000034010020F0B50268164B174C02
:1017F000174D4FF08047984205D0B84203D0A04221
:1018000001D0A84203D122F070064A6832439842C0
:1018100005D0B84203D0A04201D0A84203D122F49F
:101820004074CA68224322F080044A69224302605D
:101830008A68C2620A688262984201D109690163BA
:1018400001214161F0BD0000002C01400004004076
:101850000008004010B5846842EA032224F47F4463
:101860000A432243826010BD826822F070020A435C
:1018700042F007018160704710B5036A046A24F0E2
:1018800001040462846924F0F00444EA021423F0A1
:101890000A020A438461026210BD10B5036A23F094
:1018A000100303628369046A23F4704343EA02323B
:1018B00024F0A00343EA01118261016210BD00001F
:1018C0002DE9F041044600680169E26821F44051C5
:1018D000114301612169A0680843616908432168D7
:1018E000CA6841F20C639A430243CA6020684169A6
:1018F000A26921F44071114341614C49206864257B
:10190000322688423CD1FEF735FF00EBC00101EBE7
:10191000001061688900B0FBF1F7FEF72BFF00EBC8
:10192000C00101EB00106168B0468900B0FBF1F026
:10193000B0FBF5F06FF01801484307EB800106EBB0
:101940000110B0FBF5F000F0F006FEF713FF00EB1E
:10195000C00101EB001061688900B0FBF1F0B0FB41
:10196000F5F006EB0016FEF705FF00EBC00101EBFA
:10197000001061688900B0FBF1F7FEF7FBFE3BE069
:10198000FEF7E8FE00EBC00101EB00106168890082
:10199000B0FBF1F7FEF7DEFE00EBC00101EB00103B
:1019A0006168B0468900B0FBF1F0B0FBF5F06FF074
:1019B0001801484307EB800106EB0110B0FBF5F07E
:1019C00000F0F006FEF7C6FE00EBC00101EB0010D0
:1019D00061688900B0FBF1F0B0FBF5F006EB001692
:1019E000FEF7B8FE00EBC00101EB00106168890052
:1019F000B0FBF1F7FEF7AEFE00EBC00101EB00100B
:101A000061688900B0FBF1F0B0FBF5F06FF01801F0
:101A1000484307EB800108EB0110B0FBF5F02168AB
:101A200000F00F0030448860BDE8F08100380140CC
:101A30002DE9F041984617460E460446069D1DE0E6
:101A4000681C1BD02DB1FEF70FFDA0EB0800A842CB
:101A500014D92068C16821F4D071C160206841693F
:101A600021F001014161202084F8390084F83A0016
:101A7000002084F838000320BDE8F0812068006869
:101A800036EA000004D00020B842D9D00020F3E7A5
:101A90000120F9E710B5FFF705FD01F0F1FC04495D
:101AA00018B9087820F001000870087810BD00000F
:101AB0001000002010B508B1042010BD0F480078B8
:101AC000C00701D0032010BD012439B1022910D074
:101AD0005FF00404FFF7A9FD204610BD0022082195
:101AE0000748FEF7BBFCFFF7EEFDFF28F2D100240C
:101AF000F0E74FF400701080F9E7000010000020BC
:101B00000008014010B50C4630B92BB10D480078E3
:101B1000C00703D0032010BD042010BD0A48007880
:101B2000400700D45202012B03D0FFF77EFD0120B5
:101B300010BD11462046FFF7BFFCFFF776FD0020E1
:101B400010BD0000100000200000002008B101209E
:101B500070470148007870471000002010B50C460F
:101B600030B92BB10F480178C90703D0032010BD4D
:101B7000042010BD0078400701D5022010BD0A489E
:101B80000078400700D45202012B03D0FFF74DFD2F
:101B9000012010BD11462046FFF7B9FCFFF745FDB7
:101BA000002010BD1000002000000020FEE7000013
:101BB0000FB4084B10B504A902AA039800F01CF852
:101BC000044602A9002000F048FA204610BC5DF847
:101BD00014FB00005B20000802E008C8121F08C1C7
:101BE000002AFAD170477047002001E001C1121F9E
:101BF000002AFBD1704700002DE9FF4F8DB00F4642
:101C00000546002606E025280BD0DDE90F12904797
:101C10006D1C761C28780028F5D111B03046BDE83F
:101C2000F08F0024A246A1460122EC4900E00443C3
:101C300015F8013F203B02FA03F00842F7D128785B
:101C40002A2810D06FF02F022878A0F1300109293E
:101C500014D80AEB8A0102EB410144F0020400EBC4
:101C6000010A6D1CF0E701CF5FEA000A03D544F4D6
:101C70000054CAF1000A44F002046D1C28782E2892
:101C800017D115F8010F44F004042A280ED06FF084
:101C90002F022878A0F1300109290AD809EB89011F
:101CA00002EB410100EB01096D1CF2E757F8049BC0
:101CB0006D1C28786C280FD006DC4C2817D06828BB
:101CC0000DD06A2814D104E0742810D07A280FD1DE
:101CD0000DE044F400140AE044F4801401E044F4FC
:101CE00040146978814202D104F580146D1C6D1C8A
:101CF0002A786E2A1FD00CDC632A31D004DC002A3B
:101D00008BD0582A11D1A3E0642A68D0692A0CD15B
:101D100065E0732A2ED004DC6F2A73D0702A04D1B8
:101D20009BE0752A6FD0782A6ED01046DDE90F123D
:101D30009047761C50E1C4F30250022806D00328D5
:101D400009D0042801CF09D0066045E101CFF11781
:101D5000C0E9006140E101CF06803DE106703BE152
:101D600017F8040B8DF8000000208DF80100EB46F9
:101D7000012003E057F804BB4FF0FF3061074FF03C
:101D8000000102D40DE008F10101884649450FDA4F
:101D90008045F8DB1BF808100029F4D108E008F1B1
:101DA000010188468142FADB1BF808100029F6D1B0
:101DB000DDE90F23AAEB08008146214600F036F941
:101DC000304400EB080604E0DDE90F121BF8010BBC
:101DD0009047B8F10108F7D221464846F7E00A21BA
:101DE000C4F302534FF0000B0891022B04D001CF33
:101DF000C117032B09D00AE0FF1D27F00707F7E8FA
:101E0000020108E032E01FE020E000B2C117042B1D
:101E100001D140B2C117031E71F1000307DA4FF080
:101E2000000CD0EB0C006CEB01012D2302E023052C
:101E300004D52B238DF82430012303E0E30701D0E0
:101E40002023F7E7984658E00A2110E010210EE021
:101E500010204FF0000B08900CE010214FF0000B09
:101E600044F004044FF00809089103E008214FF002
:101E7000000B0891C4F30253022B04D001CF0021C0
:101E8000032B06D006E0FF1D27F00707F7E8020145
:101E900003E080B2042B00D1C0B24FF0000823074A
:101EA0002BD5702A07D0DDF820C08CF0100C5CEA2E
:101EB0000B0C05D00EE040238DF82430012308E000
:101EC00050EA010306D030238DF824308DF8252008
:101ED00002239846DDF820C08CF0080C5CEA0B0C5D
:101EE0000BD150EA010301D1630706D530238DF8E9
:101EF00024304FF00108A9F10109582A04D038A272
:101F00000B9208AA0A920BE03AA2F9E75B46089AFC
:101F1000FEF731F90B9B9B5C0A9A521E0A921370D2
:101F200050EA0102F2D10A98ADEB000000F1200B5B
:101F3000600702D524F4803401E04FF00109D9454F
:101F400002DDA9EB0B0000E0002000EB0B01414497
:101F50000890AAEB010AE00306D4DDE90F2321462D
:101F6000504600F063F806444FF0000908E009A964
:101F700011F80900DDE90F12904709F10109761CFB
:101F8000C145F4DBE0030CD5DDE90F2321465046C3
:101F900000F04CF8064404E0DDE90F1230209047D1
:101FA000761C0899481E08900029F5DC08E00A987C
:101FB0000A990078491C0A91DDE90F129047761CB6
:101FC000BBF10001ABF1010BF1DC21465046DDE92C
:101FD0000F2300F019F806446D1C1BE609280100C8
:101FE000303132333435363738396162636465668F
:101FF0000000000030313233343536373839414251
:1020000043444546000000002DE9F0410446002508
:102010001E461746880404D405E039462020B04700
:102020006D1C641EF9D52846BDE8F0812DE9F0410C
:10203000044600251E469046C80301D5302700E01F
:102040002027880404D505E041463846B0476D1C7A
:10205000641EF9D52846BDE8F0810A68531C0B6060
:102060001070704710B5044600F5805000220271D0
:10207000521EC262204601F058F908B1032010BD7B
:10208000B4F8FE01A0F52A41553901D0022010BD57
:1020900094F83600B4F8371040EA01210848B0EB54
:1020A000012F08D094F85210B4F8532041EA0221CD
:1020B000B0EB012F01D1002010BD012010BD0000A8
:1020C0000046415400E0401C02780AB18A42FAD12D
:1020D000D0B2704730B50021064A0C4601EB4103EF
:1020E00052F82350854201D142F82340491C02296D
:1020F000F4D330BD1024002000F58050891E4269C1
:10210000921E8A4201D800207047826A807801FBC3
:10211000002070472DE9F04180460F0000F5805403
:1021200007D0404600F063FE022809D20120BDE836
:10213000F081E66816B16069B04207D8012605E073
:10214000411CF4D061698142F1D83E463546606950
:102150006D1CA84202D80225022E0AD32946404609
:1021600000F045FE38B1411CE1D00128DFD0B54276
:10217000EDD10020DBE76FF070422946404601F0C8
:10218000F0F830B957B12A463946404601F0E9F82F
:1021900020B101280DD001252846C8E7E560206957
:1021A000411CF9D0401E2061607940F0010060714F
:1021B000F2E74FF0FF35EFE72DE9F84F88460D685D
:1021C00000E06D1C29782F29FBD05C29F9D000F59F
:1021D000805A0024DAF820702646A85D761C202854
:1021E00017D32F2815D05C2813D0FF2C31D2012112
:1021F00000F064FC5FEA00092BD0B9F1800F04D233
:10220000014668A0FFF75EFF18BB27F81490641C16
:10221000E3E7AA19C8F80020202801D2042516E017
:10222000002514E007EB440030F8020C20280DD004
:102230002E280BD06CB1002027F814000B2220218F
:10224000DAF8180001F06AF8002606E0641E002C97
:10225000E8D10620BDE8F88F761C37F81600202854
:10226000FAD02E28F8D01EB145F0030500E0641E18
:102270002CB107EB440030F8020C2E28F7D10020D7
:1022800081464FF0080B009037F8160006F1010662
:102290005FEA000824D0B8F1200F04D0B8F12E0F67
:1022A00004D1A64202D045F00305EDE70098584559
:1022B00001D2A6421AD1BBF10B0F0FD0A64201D01A
:1022C00045F003050CD84FF0080000904FEA8960F4
:1022D00026464FF00B0B4FEA1069D5E745F0030592
:1022E000DAF818000178E52938D039E04046B8F12D
:1022F000800F10D3002100F0E1FB5FEA000805D059
:102300002B4901EB080010F8800C804645F00205CF
:10231000B8F1000F04D0014626A0FFF7D3FE20B18C
:102320004FF05F0845F003050FE0A8F141001928C0
:1023300002D849F0020908E0A8F16100192804D880
:10234000413049F001091FFA80F8DAF818200099A5
:1023500002F801800098401C009095E7052101706B
:10236000BBF1080F03D14FEA89604FEA1069C9F346
:102370008100032803D06FEA0901890701D145F0E4
:102380000205A90709D409F00301012901D145F08B
:102390001005012801D145F00805DAF81800C572CA
:1023A000002057E7222A3A3C3E3F7C7F0000000095
:1023B000EE3B00082B2C3B3D5B5D0000401E0228DD
:1023C00015D20C4B00EB400203EB82014889B0F5BB
:1023D000807F05D008B1401E80B2488110B104E072
:1023E0000020FAE7002043F8220000207047022076
:1023F00070470000102400202DE9F14F82B0002129
:10240000029800F0A7F900287AD1029DFF2005F577
:1024100080554FF6FF7A00908146A5F824A02969DF
:10242000286800F082FF06000DD16C69207848B161
:10243000E17AE52801F03F016DD00A0704D50F29A4
:1024400069D107E0042671E00F2903D0B9F1000F2C
:102450004AD04FE0296A89B3420606D5627B0092D2
:1024600020F04000EA888146AA84484535D1627B45
:102470000098824231D101912078A04620F040009E
:10248000401E00EB80010027DFF8A8B001EBC0067A
:10249000012400BF1BF8071001EB0800008874B18D
:1024A00000F028FB0446FF2E17D2019830F81600E2
:1024B000761C00F01FFBA0420FD102E02FE0504538
:1024C0000BD17F1C0D2FE5D398F80000400608D5EE
:1024D0003CB1019830F8160018B1FF2000F0FF0958
:1024E0001DE0A9F10100F9E7204601F0C9F80099C3
:1024F00088421BD0A869C17AC9070CD10A2102E021
:1025000015E0491E06D314F8012B10F8013BD21A2E
:10251000F7D000E052B14FF0FF09A5F824A0002148
:10252000029800F009F806003FF479AF3046BDE8A4
:10253000FE8F00006E3C00082DE9F04100F580544C
:102540000F46E688761C3004000C38D0216991B320
:10255000206800F5805253895B09B6FBF3F503FB55
:102560001563002B67D1491C2161E16821B35389B0
:1025700092785B09B6FBF3F3521E13425BD100F075
:1025800036FC054601281FD9681C39D0206841F265
:1025900014010958A94248D86FB1E168FFF7BAFDA4
:1025A00005000FD0012D0FD0681C29D0206801F044
:1025B00074F828BB0AE002E01089B0423BD804203E
:1025C000BDE8F0810720FBE70220F9E741F20A01AC
:1025D00020680A5A002100F0A1FE29462068FFF772
:1025E0008BFD2168002701F580514FF00108C8627A
:1025F0000FE000BF80F80480206801F04EF808B1B9
:102600000120DDE7206800F58050C16A491C7F1C6D
:10261000C162206800F580508178B942EAD821680B
:1026200001F58051C96AC91BC162E560294620686D
:10263000FFF762FD2061E68041F20A012068095A35
:102640004909B6FBF1F201FB126100EB4110606138
:102650000020B5E72DE9F35FFF24834627460426D3
:102660004FF6FF784FF0000900F5805567E02868C5
:1026700000F05BFE060066D16869017881B1C27A1C
:10268000E52902F03F0209D02E2907D022F02003CD
:10269000082B07D0B446019B9C4506D0FF2440E0A0
:1026A000042650E04FF0010CF5E70F2A01D0ACBB37
:1026B0003EE04A0605D5477B21F04001EA880C46FA
:1026C000AA84A1422BD1417BB94228D10178DFF8FD
:1026D00080A001F03F01491E01EB810202EBC10124
:1026E0000022D5F820C001261AF8023003441B88C6
:1026F00036B1FF2913D22CF811301E46491C01E0D7
:1027000043450CD1521C0D2AEED30078400603D568
:10271000FF2904D22CF81190641E01E00CE0FF2484
:10272000E4B200215846FFF707FF060007D00AE091
:1027300000F0A6FFB84208D0A5F8248005E029697A
:10274000002994D10EB1C5F810903046BDE8FC9F29
:102750006E3C000870B500F580540D46E180A3681A
:10276000012B42D0206800F58050416999423CD944
:1027700023B90178032906D1436A23B141898078BE
:102780004E09464312E00189A9422ED9406A13E05E
:1027900000F02DFB0346401C25D0022B25D32068DA
:1027A00000F58050406998421FD9AD1B2068B542A2
:1027B0001946EDD2FFF7A0FCE360B0B121680A46EC
:1027C00001F580514B895B09B5FBF3F31844206197
:1027D00048894009B5FBF0F100FB115002EB4010B5
:1027E0006061002070BD012070BD022070BD00003E
:1027F000084910B50B5C002253B901220A540A188B
:1028000001EB8000127A4068016810468847024652
:10281000104610BD2826002030B4054C231804EBC8
:1028200080001B7A406804691846A44630BC6047A3
:102830002826002030B4054D2C1805EB8000247AA2
:10284000406885682046AC4630BC6047282600209A
:10285000044A111802EB8000097A40684268084671
:10286000104700002826002030B4054D2C1805EB39
:102870008000247A4068C5682046AC4630BC60477A
:102880002826002010B5044600F030FF00280AD1A9
:1028900004F58054E16921B10846FFF78FFD002857
:1028A00001D10021216010BD2DE9F74F14468B4660
:1028B00000226946204600F02FF9D4F800A05FEA14
:1028C00000084FD10AF58054D4E90407B91E8842A4
:1028D00002D8CBF8000045E094F800900025B9F14B
:1028E000010F01D0266A16E002263146504600F05C
:1028F0007EFA411C03D0012803D028B105E0012055
:1029000000E00220804626E06D1C6069761C86424D
:10291000EBD320E049B93146761C504600F005FD66
:102920005FEA000817D161895046B9F1020F07D05C
:102930000278D0F8013042EA0322120106D006E004
:10294000028802B96D1C801C891E02E06D1C001DEE
:10295000091F7F1EDED12561607940F001006071A2
:10296000CBF800504046BDE8FE8F00002DE9F7414E
:1029700081B0904602980090684600F00AFB04007F
:1029800003D50B2004B0BDE8F081104E002756F8A7
:1029900024502DB12846FFF79DFB05F580552F707B
:1029A0000198002803D000BF4FF480510F5446F81F
:1029B000240002D0B8F1010F01D00020E2E700228C
:1029C00002A901A800F0A8F8DCE7000044000020FC
:1029D000F3B585B006000BD0002206A9684600F0CA
:1029E0009BF805004FF0000706F5805403D032E055
:1029F000092007B0F0BD0098206001A8A061174829
:102A000020623046069900F0BDF9050013D16169D6
:102A100031B1C87AC0061DD5009800F025FBA06032
:102A20000098002100F58050C088A0803046FFF754
:102A300091FE050002D0042D0CD00CE0A06838B146
:102A40000021304600F0C4FAE06128B9122502E006
:102A5000E76101E0052527602846CAE72824002011
:102A6000FEB50F46054600F041FE00281BD1DFB140
:102A700005F580541048C4F818D02062002128467B
:102A8000FFF7E8FD0026042813D000280BD13946B3
:102A9000284600F01FFA00212846FFF74DFD0428C4
:102AA00001D100202661FEBD00212846FFF752FE1D
:102AB000FEBD2661EBE7000028240020802804D317
:102AC0000B4A51B1FF2801D90020704702EB4000AA
:102AD000A0F58050B0F8000F704732F811308342F3
:102AE00003D0491C89B28029F7D38031C8B270471E
:102AF0002E3700080021064B00E0491C33F8112056
:102B0000002A04D08242F8D1024830F81100704700
:102B10002E3800080E3A00082DE9FF5F4FF0000B39
:102B20000546C0F800B01746084600F032FA060025
:102B300003D50B2004B0BDE8F09F8F4850F8264025
:102B40009CB12C6004F58055287820B16878FFF797
:102B50007FFEC1070BD085F800B0F0B26870FFF7B8
:102B600047FEC10708D00320E4E70C20E2E70FB1DD
:102B7000400704D40020DDE71FB1400701D50A203B
:102B8000D8E741F20A01621868780221FFF744FE93
:102B900078BB6889B0F5007F34D3B0F5805F31D859
:102BA000002631462046FFF75DFA012826D1002095
:102BB0004FEA0D0204EB001191F8C23101F5DF710B
:102BC0002BB10B7AD1F8091043EA012100E0002172
:102BD00042F82010401C0428ECD300274FEA0208DA
:102BE00058F8276036B131462046FFF73BFA10B956
:102BF0000AE007E002207F1C042FF1D3032801D054
:102C0000F0BB01E0012095E7B4F80B00B5F80AC06D
:102C100060455FD1E18A29B994F82400D4F82510E1
:102C200040EA0121A961207C8A46E870012801D090
:102C300002284FD100FB01F9607BA87000B3411E50
:102C4000084247D1B4F811104FEA5C12B1FBF2F31D
:102C500002FB131329819BB9B4F813702FB994F8B0
:102C60002030D4F8217043EA0727E38943B1B1FB50
:102C7000F2F803EB0902424497422BD3BF1A00E05B
:102C800028E0B7FBF0F028B3012740F6F67840457E
:102C900000D302274FF6F678404500D30327801C67
:102CA0003244AA6233446861C5E90763032F13D035
:102CB00081B103EB09016962022F18D000F0010114
:102CC00000EB400001EB5000401E6044B0FBFCF103
:102CD00051450ED90D202DE70029FBD194F82C1079
:102CE000D4F82D20800041EA02216962ECE740001F
:102CF000EAE74FF0FF302861E86080206871032F19
:102D00002ED1208E01282BD12046711C00F00DFB06
:102D100030BB85F805B0B4F8FE01A0F52A4155395D
:102D20001ED12078D4F8011040EA012013498842CE
:102D300016D194F8E401D4F8E51140EA01201049D5
:102D400088420DD194F8E801D4F8E91140EA012055
:102D5000286194F8EC01D4F8ED1140EA0120E86014
:102D600005492F70091F0888401C0880E88020460C
:102D7000FFF7B0F9FEE60000440000205252614126
:102D80007272416173B50546019801782F2901D00F
:102D90005C2901D1401C019005F580540026A660F5
:102DA00001980078202805D200212846FFF7D2FCA0
:102DB00066617CBD01A92846FFF7FEF90028F8D11D
:102DC0002846FFF719FBA169C97A28B10428F0D178
:102DD0004907EED405207CBD4907FCD46169C87A57
:102DE000C006F7D5206800F03FF9A060E2E72DE9C2
:102DF000F0470D46074602290DD307F58054606958
:102E0000A84208D920784FF0FF36012807D00228C1
:102E100032D0032844D001263046BDE8F0876189CE
:102E200005EB5508B8FBF1F0216A0144384600F083
:102E30007CFA0028F0D16189B8FBF1F201FB128025
:102E400008F1010817F80090B8FBF1F0216A01447D
:102E5000384600F06AFA0028DED16189B8FBF1F249
:102E600001FB1280395C49EA0120E90701D006091B
:102E7000D2E7C0F30B06CFE76089216A4008B5FBB3
:102E8000F0F00144384600F050FA0028C4D16189BE
:102E90006800B0FBF1F201FB120038440688BBE782
:102EA0006089216A8008B5FBF0F00144384600F0E3
:102EB0003CFA0028B0D16189A800B0FBF1F201FB17
:102EC000120038440178D0F8010041EA002020F0D7
:102ED0007046A1E72DE9F04100F580500C4601F164
:102EE0000902016971B3002543692E26595D6D1CE5
:102EF000202919D0052900D1E521092D01D102F899
:102F0000016BA1F14107192F0CD81F7B092D02D3AA
:102F10004FF0100C01E04FF0080C17EA0C0F01D035
:102F20002031C9B202F8011B0B2DDFD3D97A2172EF
:102F3000197FD3F81D5041EA05212160198BA1802A
:102F4000D98AE1804FF0000882F80080A669002E3F
:102F50001DD001690025C1B1E169B1B1818CA1F534
:102F60007F42FF3A11D0076A0BE00021FFF7A6FD70
:102F700018B1E169491EA94201D8002505E0705544
:102F80006D1C37F8020B0028EFD106F80580BDE86C
:102F9000F08110B504464FF0FF302268002A13D0AC
:102FA000114600E0491C0B78202B0ED33A2BF9D1A7
:102FB00012F8013B303B0A2B06D28A4204D1002B87
:102FC00002D1491C1846216010BD002010BD000030
:102FD000F0B500F5805323481C68002202EB42053F
:102FE00050F82560A64209D100EB85059F686E6800
:102FF000BE4203D12D89DE88B54202D0521C022A7E
:10300000ECD3022A18D1002202E0521C022A05D277
:1030100002EB420550F82550002DF6D1022A13D0BC
:1030200002EB420540F8254000EB85049E6866608F
:10303000DB88238100236381002902EB420100EB3E
:103040008101498902D019B10020F0BD491C01E07D
:103050004FF4807102EB420300EB83004181501C6E
:10306000F0BD000010240020024602F58052488B7B
:103070001278032A02D1898A40EA01407047000091
:10308000ADF5845D41F24C00142273A16844FDF754
:1030900059F8FDF7F7F9FEF74BFBFEF741F9FEF79C
:1030A00083F9FEF72FF9724870490C2201604FF442
:1030B000E131416000218160C160C0E90412816199
:1030C000C161FEF764F800B1FEE7FEF7ADF9FEF767
:1030D0008BF967484038FDF711FF66484078FFF7E5
:1030E00087FB002264496548FFF740FC00B1FEE71A
:1030F0005F4809AE403006904FF40070079060A121
:103100003046FFF765FC5F4C4FF48055207080BB64
:103110006F4639463046FFF7A3FC207030BB9DF860
:10312000090018B3DDF818804046FDF71DF808B116
:10313000404602E00DF109008046FDF715F882B225
:103140002B4641464A48FEF77FF89DF80800C00626
:1031500005D52B4607224CA14548FEF775F82B46AE
:1031600002224BA14248FEF76FF8D2E73046FFF744
:1031700089FB444A08A9083241A0FFF795FB45A105
:103180004948089AFEF714FD4748FCF7EDFF82B264
:103190002B4645493648FEF757F8A06843A100F58D
:1031A000805042694048FEF703FD3F48FCF7DCFFD2
:1031B00082B22B463C492E48FEF746F8A0683FA154
:1031C00000F5805082783848FEF7F2FC3648FCF76C
:1031D000CBFF82B22B4634492548FEF735F8A0686C
:1031E0003AA100F5805046698078B61E46433246C3
:1031F0002D48FEF7DDFC2C48FCF7B6FF82B22B46CB
:1032000029491B48FEF720F8A06834A100F580503A
:1032100084780898444322462348FEF7C9FC224894
:10322000FCF7A2FF82B22B461F491148FEF70CF8AB
:10323000730862082DA11C48FEF7BAFC1A48FCF777
:1032400093FF82B22B4618490948FDF7FDFF0A4853
:10325000FDF708F8FEE7000048656C6C6F206672A9
:103260006F6D2053544D333221212100003801402D
:1032700074010020B413002029000020B4030020B2
:103280002F0000000400002020205B4449525D0014
:103290000D0A00006672655F636C7573743A2025D1
:1032A0006C750D0A00000000480000206E5F66612A
:1032B00074656E743A20256C750D0A0066735F6341
:1032C00073697A653A2025640D0A0000746F745F93
:1032D000736563743A20256C750D0A006672655F2C
:1032E000736563743A20256C750D0A00256C752092
:1032F0004B4220746F74616C206472697665207330
:10330000706163652E0D0A256C75204B4220617635
:1033100061696C61626C652E0D0A0000C9B201E042
:1033200000F8011B521EFBD270472DE9F04100F559
:1033300080540746E06A0E460025B0420ED038465B
:1033400000F0ABF9050009D1607801233246394617
:10335000FFF770FA08B16E1E0125E6622846BDE847
:10336000F0812DE9F04717460D460646022904D3A1
:1033700006F580546069A84202D80220BDE8F087B3
:10338000217807F0FF094FF0010A012924D0022912
:103390005DD00329F1D16089216A8008B5FBF0F086
:1033A00001443046FFF7C1FF0028E7D16289A90038
:1033B000B1FBF2F302FB13118A194FF07043D2F8FC
:1033C000011003EA0121394311700B0A53700B0CF1
:1033D0009370090ED17050E0618905EB5508B8FB78
:1033E000F1F0216A01443046FFF79FFF0028C5D164
:1033F0006189B8FBF1F201FB1280304408F1010849
:10340000E90703D0017869F31F1100E03946017024
:1034100084F804A06189B8FBF1F0216A01443046C8
:10342000FFF783FF0028A9D16289B8FBF2F302FB02
:1034300013813144EA0702D0C7F3071205E00A7886
:10344000C7F3032302F0F0021A430A7015E0608903
:10345000216A4008B5FBF0F001443046FFF765FFF4
:1034600000288BD162896900B1FBF2F302FB1311D2
:1034700031443A0A81F800904A7084F804A07DE74C
:103480002DE9FE43012251036948FCF7E7FF694D2E
:103490004FF0000885F80080674E3820F769F0612A
:1034A0003046FDF72FFBDFF89491012208214846B2
:1034B000FCF7D4FF0024FF20FEF716F9641CE4B2E9
:1034C0000A2CF8D35C48F761FDF71CFB00220821A9
:1034D0004846FCF7C3FF00214020FEF74BF80128C7
:1034E00002D00120BDE8FE83FF20FEF7FDF84FF477
:1034F000D5714820FEF73EF84FF48057012809D0D7
:103500000021E920FEF736F8012868D8022028704B
:10351000E92667E0002402AEFEF784F83055641C0B
:10352000E4B2042CF8D39DF80B109DF80A00CDE905
:1035300000019DF809309DF8082041A14948FEF797
:1035400037FB4848FCF710FE82B23B4645494648E7
:10355000FDF77AFE9DF80A00012858D19DF80B006E
:10356000AA2854D142F6E0644FF0804803E0641E7C
:1035700024B2002C4BD04146E920FDF7FBFF002888
:10358000F5D15CB300217A20FDF7F4FF30BB0024B5
:10359000FEF748F83055641CE4B2042CF8D39DF8CB
:1035A0000B109DF80A00CDE900019DF809309DF847
:1035B000082023A12B48FEF7FBFA2A48FCF7D4FD8C
:1035C00082B23B4627492848FDF73EFE9DF8080099
:1035D000400601D50C2000E00420287017E00120EF
:1035E0002870412646F2A81402E0641E24B264B199
:1035F00000213046FDF7BEFF0028F6D12CB14FF474
:1036000000715020FDF7B6FF08B14046E5E72A7883
:1036100016A11448FEF7CCFA1248FCF7A5FD82B2B9
:103620003B4610491048FDF70FFE00205AE7000006
:10363000001001400000002084000020000801402C
:103640004F43523A20307825303258203078253098
:103650003258203078253032582030782530325892
:103660000D0A0000480000207401002054797065A4
:103670002053443A203078253032580D0A0000009B
:10368000014600200B22430803EBC01011F8013B58
:10369000521E1844C0B2F6D170472DE9F04100F532
:1036A0008054804620790027E8B1E56A60780123DC
:1036B0002A464146FFF7D8F808B1012713E0002059
:1036C0002071206AA169281A88420CD2E67808E0A5
:1036D000A0690123054460782A464146FFF7C4F8F3
:1036E000761E022EF4D23846BDE8F08110B580B1C6
:1036F00000F58050016861B101F580510A7842B14E
:10370000CA888088824204D14878FFF7A1F8C007B0
:1037100000D0092010BD00000000000000000102E0
:103720000304060708090000000001020304C700A3
:10373000FC00E900E200E400E000E500E700EA0048
:10374000EB00E800EF00EE00EC00C400C500C9008B
:10375000E600C600F400F600F200FB00F900FF00EE
:10376000D600DC00F800A300D800D7009201E100E9
:10377000ED00F300FA00F100D100AA00BA00BF008A
:10378000AE00AC00BD00BC00A100AB00BB009125A9
:103790009225932502252425C100C200C000A9005E
:1037A0006325512557255D25A200A5001025142568
:1037B00034252C251C2500253C25E300C3005A2573
:1037C000542569256625602550256C25A400F00048
:1037D000D000CA00CB00C8003101CD00CE00CF0020
:1037E00018250C2588258425A600CC008025D3002B
:1037F000DF00D400D200F500D500B500FE00DE00E9
:10380000DA00DB00D900FD00DD00AF00B400AD0040
:10381000B1001720BE00B600A700F700B800B00046
:10382000A800B700B900B300B200A025A000610055
:10383000620063006400650066006700680069005C
:103840006A006B006C006D006E006F00700071000C
:1038500072007300740075007600770078007900BC
:103860007A00A100A200A300A500AC00AF00E00018
:10387000E100E200E300E400E500E600E700E80024
:10388000E900EA00EB00EC00ED00EE00EF00F000D4
:10389000F100F200F300F400F500F600F800F90082
:1038A000FA00FB00FC00FD00FE00FF000101030127
:1038B0000501070109010B010D010F0111011301A0
:1038C0001501170119011B011D011F012101230110
:1038D0002501270129012B012D012F013101330180
:1038E000350137013A013C013E01400142014401EA
:1038F000460148014B014D014F0151015301550152
:10390000570159015B015D015F01610163016501BF
:10391000670169016B016D016F017101730175012F
:1039200077017A017C017E019201B103B203B303F6
:10393000B403B503B603B703B803B903BA03BB03B3
:10394000BC03BD03BE03BF03C003C103C303C40361
:10395000C503C603C703C803C903CA03300431043F
:10396000320433043404350436043704380439048B
:103970003A043B043C043D043E043F04400441043B
:1039800042044304440445044604470448044904EB
:103990004A044B044C044D044E044F045104520499
:1039A00053045404550456045704580459045A0443
:1039B0005B045C045E045F04702171217221732139
:1039C0007421752176217721782179217A217B2133
:1039D0007C217D217E217F2141FF42FF43FF44FF67
:1039E00045FF46FF47FF48FF49FF4AFF4BFF4CFF9B
:1039F0004DFF4EFF4FFF50FF51FF52FF53FF54FF4B
:103A000055FF56FF57FF58FF59FF5AFF000041006E
:103A1000420043004400450046004700480049007A
:103A20004A004B004C004D004E004F00500051002A
:103A300052005300540055005600570058005900DA
:103A40005A002100E0FFE1FFE5FFE2FFE3FFC000D5
:103A5000C100C200C300C400C500C600C700C80042
:103A6000C900CA00CB00CC00CD00CE00CF00D000F2
:103A7000D100D200D300D400D500D600D800D900A0
:103A8000DA00DB00DC00DD00DE007801000102016D
:103A90000401060108010A010C010E0110011201C6
:103AA0001401160118011A011C011E012001220136
:103AB0002401260128012A012C012E0130013201A6
:103AC0003401360139013B013D013F014101430110
:103AD000450147014A014C014E0150015201540178
:103AE000560158015A015C015E01600162016401E6
:103AF000660168016A016C016E0170017201740156
:103B0000760179017B017D01910191039203930379
:103B10009403950396039703980399039A039B03D1
:103B20009C039D039E039F03A003A103A303A4037F
:103B3000A503A603A703A803A903AA03100411045D
:103B400012041304140415041604170418041904A9
:103B50001A041B041C041D041E041F042004210459
:103B60002204230424042504260427042804290409
:103B70002A042B042C042D042E042F040104020417
:103B800003040404050406040704080409040A04E1
:103B90000B040C040E040F046021612162216321D7
:103BA0006421652166216721682169216A216B21D1
:103BB0006C216D216E216F2121FF22FF23FF24FF45
:103BC00025FF26FF27FF28FF29FF2AFF2BFF2CFFB9
:103BD0002DFF2EFF2FFF30FF31FF32FF33FF34FF69
:103BE00035FF36FF37FF38FF39FF3AFF0000809A74
:103BF00090B68EB78F80D2D3D4D8D7DE8E8F9092E6
:103C000092E299E3EAEB59999A9D9C9D9E9FB5D6C5
:103C1000E0E9A5A5A6A7A8A9AAABAC21AEAFB0B113
:103C2000B2B3B4B5B6B7B8B9BABBBCBDBEBFC0C1FC
:103C3000C2C3C4C5C7C7C8C9CACBCCCDCECFD0D1EB
:103C4000D2D3D4D5D6D7D8D9DADBDCDDDEDFE0E1DC
:103C5000E2E3E5E5E6E7E7E9EAEBEDEDEEEFF0F1CB
:103C6000F2F3F4F5F6F7F8F9FAFBFCFDFEFF0103B9
:103C70000507090E10121416181C1E00000400027D
:103C80000001800040002000100008000400020035
:103C900000000080004000200010000800400020CC
:103CA0000010000800040002C83C000800000020CA
:103CB00048000000D81B0008103D00084800002004
:103CC000F0290000E81B00080000000000000000D0
:103CD000000000000000000001000000951A00082C
:103CE0004D1B0008051B00085D1B0008B51A0008E5
:103CF00000000000000000000100000010000000B3
:103D00000000000000A24A040000000000000000C3
:04000005080000ED02
:00000001FF
